:020000040800F2
:10000000C8090424AD020008057C0008B3030008F9
:10001000B3030008050C000801BE00080000000042
:10002000000000000000000000000000B195000882
:100030005D10000800000000FF020008BD950008E8
:10004000C7020008C7020008C7020008C70200086C
:10005000C7020008C70200085F100008C7020008B6
:10006000C7020008C7020008C7020008090C000800
:10007000C7020008C7020008C7020008C70200083C
:10008000C7020008C7020008C7020008C70200082C
:10009000C7020008C7020008C7020008C70200081C
:1000A000C7020008C7020008C7020008C70200080C
:1000B00081970008C7020008C7020008C7020008AD
:1000C000C7020008C7020008C7020008C7020008EC
:1000D000C7020008C7020008C7020008C7020008DC
:1000E000C7020008C702000800000000C70200089D
:1000F000C7020008C7020008C7020008C7020008BC
:10010000C7020008C7020008C7020008C7020008AB
:10011000C7020008C7020008C7020008C70200089B
:10012000C7020008C7020008C7020008C70200088B
:10013000C7020008C7020008C7020008C70200087B
:1001400000000000000000000000000000000000AF
:10015000C7020008C7020008C7020008C70200085B
:10016000C7020008C7020008C7020008C70200084B
:10017000C7020008C7020008C7020008000000000C
:10018000C7020008C7020008C70200089D9C0008BB
:10019000C7020008C7020008C7020008C70200081B
:1001A000C7020008C7020008C7020008C70200080B
:1001B000C7020008C7020008C7020008C7020008FB
:1001C000C7020008C7020008C7020008C7020008EB
:1001D000C7020008097C0008C7020008C70200081F
:1001E000C7020008C7020008C7020008C7020008CB
:1001F000C7020008C7020008C7020008C7020008BB
:10020000C7020008C7020008C7020008C7020008AA
:10021000C7020008C7020008C7020008C70200089A
:10022000C7020008C7020008C7020008000000005B
:1002300095880008C702000800000000C7020008F7
:10024000C7020008C7020008C7020008C70200086A
:10025000C7020008C7020008C7020008C70200085A
:10026000C7020008C7020008C7020008C70200084A
:10027000C7020008C7020008C7020008000000000B
:10028000C7020008C7020008C702000800000000FB
:1002900000000000C7020008DFF80CD000F038FBB7
:1002A00000480047690A0008C80904240648804736
:1002B00006480047FEE7FEE7FEE7FEE7FEE7FEE74B
:1002C000FEE7FEE7FEE7FEE79D96000899020008BC
:1002D000EFF3108072B6704780F310887047434A7E
:1002E0001368012B04D04FF001031360404A1060E3
:1002F000404A116040484FF0805101607047EFF371
:10030000108272B63948016851B34FF000010160A4
:100310003748016891B1EFF309811EF0100F08BF53
:1003200021ED108B21E9F00F4FF000041EF0100FAB
:1003300008BF012441F8044D006801602D49096897
:10034000096808C9B1E8F00F002B18BFB1EC108B99
:1003500081F309884EF0100E002B18BF2EF0100EFE
:1003600082F310884EF0040E704722490860EFF3C4
:10037000148222F0040282F314881D494FF0000019
:1003800008601A494FF0010008601C484FF47F01D3
:10039000D0F8002041EA0201016017484FF0805177
:1003A000016017480068006880F3088861B662B68B
:1003B00070471EF0040F0CBFEFF30880EFF30980C5
:1003C00020E9F00F40F804ED40F804ED1EF0040FB2
:1003D0000CBF80F3088880F3098800B510F02EFD6B
:1003E0005DF804EB4EF0040E70470000CC9102243F
:1003F000C4910224C891022404ED00E020ED00E045
:1004000008ED00E02DE9F05F0546002092469B468E
:1004100088460646814640241BE02846414647461A
:10042000224600F0ADF853465A46C01A914110D307
:1004300011461846224600F094F82D1A67EB010881
:100440004F4622460120002100F08BF817EB0009EF
:100450004E41201EA4F10104DFDC484631462A4605
:100460004346BDE8F09F40EA01039B0703D009E043
:1004700008C9121F08C0042AFAD203E011F8013B90
:1004800000F8013B521EF9D27047D2B201E000F8E9
:10049000012B491EFBD270470022F6E710B5134628
:1004A0000A4604461946FFF7F0FF204610BD421EDB
:1004B00012F8013F002BFBD111F8013B02F8013B80
:1004C000002BF9D1704710B5044604E00B7800F812
:1004D000013B03B1491C521EF8D2204610BD421CFC
:1004E00010F8011B0029FBD1801A704730B5044673
:1004F0000020034600E05B1C934203D2E05CCD5C2D
:10050000401BF8D030BD034611F8012B00F8012B39
:10051000002AF9D11846704730B505460020034639
:1005200000E05B1C934205D2EC5CC85C201A01D150
:10053000002CF6D130BD30B50B46014600202022FC
:10054000012409E021FA02F59D4205D303FA02F5E0
:10055000491B04FA02F52844151EA2F10102F1DC40
:1005600030BD202A04DB203A00FA02F10020704757
:100570009140C2F1200320FA03F3194390407047E1
:10058000202A04DB203A21FA02F00021704721FAE8
:1005900002F3D040C2F1200291400843194670474F
:1005A0002DE9FE4F804681EA0300C00F0C46009003
:1005B00021F0004123F00045B8EB0200A94105D22B
:1005C0004046214690461C460B46024623F000401A
:1005D000104347D0270DC7F30A00C3F30A51029016
:1005E000401A019040286BDAC3F3130040F4801BDB
:1005F0000098924620B10023D2EB030A63EB0B0B69
:1006000001985946C0F140025046FFF7AAFF06463E
:100610000D4650465946019A00F08CF910EB08003F
:100620006141002487EA115284EAE7731A4340D0FB
:10063000009A62B3019A012A4FEA075215DC001BA7
:1006400061EB02014FF0004202EA0752CDE900429D
:10065000001C41F5801132462B4600F08CF903B0A6
:10066000BDE8F08F40462146F9E7001B61EB02012F
:10067000001C41F5801300185B412018A2F50017FB
:1006800047EB030140EAD570B6196D4111E06D08E2
:100690004FEA360645EAC0754FEA0752001B61EB88
:1006A0000201001C41F5801149084FEA3000001991
:1006B000514132462B4603B0BDE8F04F00F04CB933
:1006C0000098012240000023D0EB020263EBE073AC
:1006D000009821464FEAE074B8EB000061EB04019A
:1006E000E9E783F000435BE781F0004158E72DE93B
:1006F000FE4F81EA030404F0004421F0004100941D
:100700004FF0000B23F0004350EA01045ED052EAA0
:1007100003045BD0C3F30A54C1F30A552C44A4F27A
:10072000F3340194A0FB0254C1F3130141F480118E
:10073000C3F3130343F4801301FB024400FB034E95
:10074000840A970A44EA815447EA8357A4FB07685E
:1007500002958D0A05FB07854FEA932C04FB0C5488
:100760002705029D4FEA065847EA1637B5EB0805FC
:100770006EEB070C870E920E47EA811742EA83124E
:10078000A7FB0201B6EB0B0164EB00042B0D43EA5F
:100790000C335E1844EB1C50DA465146E7FB02016D
:1007A000C5F313044FEA0B3343EA14534FEA043200
:1007B000019C43EA0603A4F10C040294009CCDE9D9
:1007C00000B400F0D8F803B0BDE8F08F0020014677
:1007D000F9E72DE9F04D81EA030404F0004B21F024
:1007E000004514464FF0000A23F0004150EA05028C
:1007F00020D054EA01021DD0C5F30A570246C5F3C2
:100800001303C1F31300C1F30A5640F4801543F4F7
:100810008013A7EB0608101BD64608F2FD3873EBD1
:10082000050002D308F1010801E092185B41B8F11C
:10083000000F03DA00200146BDE8F08D00204FF4E0
:100840008011064684460EE0171B73EB050705D39F
:10085000121B63EB050306434CEA010C49084FEAFF
:10086000300092185B4150EA0107EDD152EA0300D3
:1008700012D082EA040083EA0501084305D0101B68
:10088000AB4106D20122002306E000224FF00043D4
:1008900002E06FF0010253101AEB06004CEB085116
:1008A00010EB0A0041EB0B01BDE8F04D00F054B82D
:1008B000C1F30A52C1F3130140F2FF3341F4801136
:1008C0009A4202DA00200146704740F233439A42CE
:1008D000A2F2334202DC5242FFF752BEFFF741BEA2
:1008E00030B5041E71F1000404DB4FF000444042B7
:1008F00064EB0101141E73F1000405DB1C464FF08C
:100900000043524263EB0403994208BF904230BD5A
:10091000064C074D06E0E06840F0010394E807004C
:1009200098471034AC42F6D3FFF7BAFC70F00308D6
:1009300090F00308202A06DBCB17203A41FA02F098
:1009400043EAE07306E041FA02F3D040C2F120022C
:10095000914008431946704710B5141E73F1000406
:1009600008DA401C41F1000192185B411A4301D1A1
:1009700020F0010010BD2DE9F04D92469B4611B1CB
:10098000B1FA81F202E0B0FA80F220329046FFF72D
:10099000E8FD04460F4640EA0A0041EA0B015346CF
:1009A0005A46084313D0114653EA010019D0C8F142
:1009B00040025046FFF7E4FD05460E4650465946B4
:1009C0004246FFF7CEFD084305D0012004E0204653
:1009D0003946BDE8F08D0020054346EAE0762C4319
:1009E00037430A986305E40AA0EB08000022FD0AD9
:1009F00044EA47540A3002D500200146E9E70105E0
:100A000010196941DDE9084500196941BDE8F04D5B
:100A1000A2E770B58C1810F8015B15F0070301D13F
:100A200010F8013B2A1106D110F8012B03E010F851
:100A3000016B01F8016B5B1EF9D12B0705D4002374
:100A4000521E0DD401F8013BFAE710F8013BCB1A16
:100A5000921C03E013F8015B01F8015B521EF9D50B
:100A6000A142D8D3002070BD10B512F065F8002067
:100A700010BD00000649012010B50870054810F0AF
:100A80009DFFBDE810400448082102F03CBB000077
:100A9000009002240C930224001002580249002006
:100AA0000870024810F08ABF009002240C930224C0
:100AB000002000B500F020F8002000F013F85DF8E9
:100AC00004EB00F001B8000005484FF4001202608A
:100AD0002021016001600160016002607047000038
:100AE00018080258034910B11020086070474FF4ED
:100AF0008010FAE718240258F0B50424104A11496E
:100B0000082623045D00072817D2DFE800F016044A
:100B100006080B0E1200136008E013600AE0136071
:100B20000C6004E014600B6005E014600B600E6064
:100B3000F0BD14600C600D60F0BD1360F3E70000C1
:100B4000180402581824025809F094B809F07EB825
:100B50000146014804F072BFB0BE0224044810B53B
:100B600004F07EFF042801D0012010BD002010BD3C
:100B7000B0BE022410B500F015F8012801D0022003
:100B800010BD074805F004F9040006D104484FF4ED
:100B9000804104F085FD00B10124204610BD000015
:100BA000B0BE022408B501208DF800009DF80000B9
:100BB00008BD000013460A4610B50024014603484C
:100BC00005F0EEFA00B10124204610BDB0BE0224AB
:100BD00001490120886070473490022413460A4678
:100BE00010B500240146034805F028FC00B101249B
:100BF000204610BDB0BE0224014901204860704764
:100C000034900224FEE70000014801F08FB9000093
:100C10000CC1032410B52A4A016891423AD0284AEF
:100C20001832914236D0264A3032914232D0244A8C
:100C3000483291422ED0224A603291422AD0204A34
:100C40007832914226D01E4A9032914222D01C4ADC
:100C5000A83291421ED01B4A91421BD0194A183229
:100C6000914217D0174A3032914213D0154A483278
:100C700091420FD0134A603291420BD0114A783220
:100C8000914207D00F4A9032914203D00D4AA832C8
:100C9000914211D1CAB20C4C1823103AB2FBF3F2B4
:100CA0006FF3090102F00703032AE35CC36500D96F
:100CB000091D8165084610BD21F0FF01F9E700001C
:100CC0001000024010040240AC38010810B5016861
:100CD0000123224CCAB2A1421BD0204C1434A142A1
:100CE00017D01E4C2834A14213D01C4C3C34A142D6
:100CF0000FD01A4C5034A1420BD0184C6434A1428E
:100D000007D0164C7834A14203D0144C8C34A14245
:100D10000FD11421083AB2FBF1F1114A02EB810222
:100D200002660F4A01F01F0180328B40C0E919238F
:100D300010BD1824103AB2FBF4F20A4C2144A82941
:100D400000D80832084901EB82010166064980316A
:100D5000416602F01F018B40836610BD08540258A3
:100D600000580258F0FBFDBF0008024010B50279A0
:100D7000531E072B30D8194C0168A1421BD0174CC9
:100D80001434A14217D0154C2834A14213D0134C6F
:100D90003C34A1420FD0114C5034A1420BD00F4C27
:100DA0006434A14207D00D4C7834A14203D00B4CDF
:100DB0008C34A14206D10A4901EB8201C16608497F
:100DC000443105E0074901EB8201C1660549443120
:100DD000016701219940416710BD00000854025885
:100DE000FC580258FC080240014610B500208B69EF
:100DF0004FF0C0748A6A53B1B3F5005F15D072B179
:100E0000012A0CD0022A0AD0032A09D104E01AB11F
:100E1000012A06D0022A03D1C96AC90100D50120DE
:100E200010BDC96AA142FAD010BD002AF7D0012A2C
:100E3000F2D0022AF3D0032AF3D010BD2DE9F04FEF
:100E4000834E834FDFF808C24836DFF80492DFF89C
:100E500000A20CF1180CDFF8F8B109F13009DFF845
:100E6000F0E10AF1600A04680BF1780B856D0EF170
:100E7000900EBC426DD064456BD04C4569D0B442F5
:100E800067D0544565D05C4563D0744561D0DFF8C8
:100E9000C08108F1A80844455BD0DFF8B88144451B
:100EA00057D0DFF8B08108F11808444551D0DFF879
:100EB000A48108F1300844454BD0DFF8988108F14F
:100EC0004808444545D0DFF88C8108F16008444566
:100ED0003FD0DFF8808108F17808444539D0DFF849
:100EE000748108F19008444533D0DFF8688108F137
:100EF000A80844452DD0DFF86081444529D0DFF8AB
:100F0000588108F11408444523D0DFF84C8108F1DA
:100F1000280844451DD0DFF8408108F13C084445CD
:100F200017D0DFF8348108F15008444511D0DFF8BC
:100F3000288108F1640844450BD0DFF81C8108F1D2
:100F40007808444505D0DFF8108108F18C08444545
:100F500009D1D0E91948C4F80480C46E1CB1D0E9A5
:100F60001C48C4F804800468BC422ED064452CD0D0
:100F70004C452AD0B44228D0544526D05C4524D0D4
:100F8000744522D0324EA836B4421ED0314EB442FF
:100F90001BD0304E1836B44217D02E4E3036B442E5
:100FA00013D02C4E4836B4420FD02A4E6036B4428D
:100FB0000BD0284E7836B44207D0264E9036B44235
:100FC00003D0244EA836B44215D190F85C4004F00A
:100FD0001F063F24B440AC600468256825F48025D2
:100FE00025602EE09A600068C160BDE8F08F9960CE
:100FF0000068C260F9E7184EB4421BD0164E143692
:10100000B44217D0144E2836B44213D0124E3C3698
:10101000B4420FD0104E5036B4420BD00E4E643650
:10102000B44207D00C4E7836B44203D00A4E8C3608
:10103000B442DAD190F85C4004F01F060124B440B9
:101040006C60046863608368402B0368CFD1C9E794
:10105000100002401004024008540258704701205A
:1010600001F057BF70470022AFF300800E4B30B540
:1010700005465C7A0120002C14D1587A1C54587A09
:1010800003EB800045605D7A03F108002A54587A2A
:10109000421C5A72303008703A2048702F208870F5
:1010A0000020CC7030BD0000A4C1032430B5B3F5DE
:1010B000804F05D06FF0704140F82210002030BD05
:1010C0008C690B688D6823434C688989240144EA44
:1010D0000524234343EA014150F82230014C2340C8
:1010E0001943E9E70000F0CF30B50A6850F8223024
:1010F00023F0010340F822308B68082B28D000220F
:101100004C681B4D1C43CB6813430A691C438B6B13
:1011100014434A6914438A691443CA6914430A6A26
:1011200014434A6A14438A6A1443CA6A14430A6B12
:1011300022434C6B14430A68234350F82240AC43CB
:101140001C4340F822400A6BB2F5801F02D007E032
:101150004022D5E70A684AB1026842F48012026070
:101160000A681AB10268496B0A430260002030BD68
:101170007FFB3F0070B5D1E900348D8900EB82021E
:1011800043EA04138C68240244EA05440D8A23438D
:10119000104C04EB05552B430D7D660106EB0565F0
:1011A0002B438D692B43556805F040452B43536015
:1011B0000268D2020BD54268098A22F4700204EB5D
:1011C00001511143426822F470020A434260002038
:1011D00070BD00000000F0FF00B52DED028B83B064
:1011E00001A96A461EA00CF061FB1E49087020B1DF
:1011F000002003B0BDEC028B00BD0098B6EE001BD2
:10120000019AC1694089891E4143504300EE101A7A
:10121000174AB8EE400B20EE012B9FED130B22EE88
:10122000002BB7EEC23B02EE100AB8EE422B22EEC4
:10123000011B21EE000BB7EEC00BFCEEC30A10EE53
:10124000901AC2F80B10BCEEC08A18EE100AC2F851
:101250000F00024607A00AF0D5FD18EE100AC8E7F5
:101260000000000040900224000000000000503FF9
:10127000F0920224534420546F74616C20737061A7
:1012800063653A25644D4220417661696C61626C08
:10129000652073706163653A25644D42200000004B
:1012A0002DE9F04F594889B090E8E20058A08846EF
:1012B0000AF0A8FD0BF0ECFC5E4801225CA10CF0EA
:1012C00009FD5D4C207028B101465CA00AF09AFD32
:1012D00001217DE05EA00AF095FD0BF0D9FC0BF03A
:1012E000D7FC654801225FA10AF09CFD62490A22F1
:1012F000A1F516700CF01AFD4F4C20700BF0C8FCD5
:10130000217819B15DA00AF07DFD02E061A00AF02C
:1013100079FD00243814069038B207900FFA86FA47
:101320002FB24FEA264B4FEA25490FFA88F54FEACC
:101330002846DFF87881DDE9060133462A46CDE903
:10134000041004EBC40000EB441101EB08008DE82D
:10135000800E57A10AF066FD641CB4F5805FEADBDD
:1013600011F060F85B4D0024334E4FF424380746EB
:10137000594B4E49424657480CF021FF30705548B2
:10138000D5E90E230CF01EFB641C0A2CF0D30BF0E5
:101390007FFC11F047F8C01B0A21B0FBF1F400EE0E
:1013A000104AB8EE400B9FED4D1B4EA0224681EE39
:1013B000002BB7EEC20BB7EEC00A8DED000B3178F3
:1013C0000AF020FD322C09D94FA00AF01BFD0321A1
:1013D0005048017109B00120BDE8F08F4EA00AF01D
:1013E00011FD3C480CF04EFA307020B101464DA082
:1013F0000AF008FD02E050A00AF004FD09B0012245
:101400000020BDE8F04F0AA10CF064BC9C38010834
:101410000D0A202A2A2A2A2A2A2046617446732085
:1014200054657374202A2A2A2A2A2A0D0A0D0A00D2
:1014300000000000E0B90224409002246D6F756E38
:1014400074206572726F72203A202564200D0A00A4
:101450006D6F756E74207375636573732121212020
:101460000D0A000053544D3332637562655F256485
:101470002E7478740000000070BE02246F70656ED8
:101480002066696C65206572726F72203A2025644F
:101490000D0A00006F70656E2066696C65207375BB
:1014A00063657373212121200D0A000000000024D0
:1014B00025346420253464202534642025346420B8
:1014C0002534642025346420253464202534640DBB
:1014D0000A00000018BC02240C9002240000000046
:1014E0000005644072657453443A25642C74696D38
:1014F000653A25646D732C73706565643A252E32E8
:10150000664D422F730D0A0063617264206572722A
:101510000D0A0000F092022463617264206F6B0D6B
:101520000A000000636C6F7365206572726F722031
:101530003A2025640D0A0000636C6F736520737593
:1015400063657373212121200D0A000010B592B04C
:1015500037480BA904F06AF93548694604F090F958
:1015600033493348803104F069FA32480521324A60
:101570009FED321AC162B2FBF1F1026B806B5143F5
:10158000B1FBF0F000EE100A2D48B8EE400A0068FA
:10159000C0EE010A400000EE100A2AA0B8EE400A90
:1015A00080EE801AB7EEC10A53EC102B0AF02AFC29
:1015B0001F4C29A0803421680AF024FC94ED040A11
:1015C00094ED051A2DA0B8EE400BB8EE411B20EEAD
:1015D000011B9FED280B21EE001B21EE001B21EECD
:1015E000000B53EC102B0AF00DFC61682BA00AF0E5
:1015F00009FCA16830A00AF005FCE16834A00AF0FB
:1016000001FC216939A00AF0FDFB61693EA00AF0E6
:10161000F9FBA16943A00AF0F5FBE16948A00AF0D3
:10162000F1FB9DF82C104EA00AF0ECFB12B010BD9F
:10163000B0BE0224A492022440787D0100247449A3
:101640001090022453444361726420434C4B3A256A
:10165000664D487A0D0A0000534443617264496E36
:10166000666F2E43617264547970653A25640D0A81
:1016700000000000000000000000503F53444361A0
:1016800072644349442E43617264436170616369CB
:1016900074793A252E326647420D0A00534443615D
:1016A0007264496E666F2E43617264566572736927
:1016B0006F6E3A25640D0A00534443617264496EAB
:1016C000666F2E436C6173733A25640D0A00000047
:1016D000534443617264496E666F2E52656C436178
:1016E00072644164643A25640D0A00005344436106
:1016F0007264496E666F2E426C6F636B4E62723A13
:1017000025640D0A00000000534443617264496E71
:10171000666F2E426C6F636B53697A653A25640D70
:101720000A000000534443617264496E666F2E4C98
:101730006F67426C6F636B4E62723A25640D0A00EC
:10174000534443617264496E666F2E4C6F67426CFE
:101750006F636B53697A653A25640D0A00000000D7
:101760005344436172644349442E4D616E75666112
:1017700063747572657249443A25640D0A0000006D
:101780002DE9F84F044601F0D1FC002C009008D060
:1017900094F83500022805D080206065002084F888
:1017A0003400EBE0CC4ECC4FCB491836DFF8288321
:1017B0003037DFF82493DFF820A308F14808DFF87A
:1017C00018B309F1600920680AF1780A0BF1900B4F
:1017D00088422ED0B0422CD0B8422AD0404528D0E2
:1017E000484526D0504524D0584522D0BA4AA83280
:1017F00090421ED0B94A90421BD0B84A183290424B
:1018000017D0B64A3032904213D0B44A4832904290
:101810000FD0B24A603290420BD0B04A7832904238
:1018200007D0AE4A9032904203D0AC4AA8329042E0
:1018300009D1026822F01E0202602068426922F08B
:101840008002426103E0026822F00E020260256815
:101850008D4228464DD0B0424BD0B84249D0404589
:1018600047D0484545D0504543D0584541D09A4A85
:10187000A83290423DD0994A90423AD0974A1832C5
:10188000904236D0954A3032904232D0934A483214
:1018900090422ED0914A603290422AD08F4A7832BC
:1018A000904226D08D4A9032904222D08B4AA83264
:1018B00090421ED08A4A90421BD0894A14329042EC
:1018C00017D0874A2832904213D0854A3C32904242
:1018D0000FD0834A503290420BD0814A64329042FA
:1018E00007D07F4A7832904203D07D4A8C329542AD
:1018F00004D1206E026822F480720260764920686A
:10190000884228D0B04226D0B84224D0404522D0C8
:10191000484520D050451ED058451CD06E49A831AE
:10192000884218D06D49884215D06C4918318842D8
:1019300011D06A49303188420DD068494831884217
:1019400009D066496031884205D0644978318842BF
:1019500001D062499031016821F00101016010E07D
:1019600001F0E4FB0099401A05280AD9202060659F
:10197000002084F83400032084F835000120BDE8FD
:10198000F88F2868C007EBD1534A012120689042A4
:101990002ED0B0422CD0B8422AD0404528D048455D
:1019A00026D0504524D0584522D04B4BA8339842DE
:1019B0001ED04A4B98421BD0484B1833984217D040
:1019C000464B3033984213D0444B483398420FD0A3
:1019D000424B603398420BD0404B7833984207D04B
:1019E0003E4B9033984203D03C4BA833984208D1E9
:1019F00094F85C30A06D03F01F053F23AB4083607B
:101A000007E094F85C30A06D03F01F0301FA03F3C4
:101A10004360206890424DD0B0424BD0B84249D08C
:101A2000404547D0484545D0504543D0584541D022
:101A3000294AA83290423DD0284A90423AD0274ABB
:101A40001832904236D0254A3032904232D0234A62
:101A5000483290422ED0214A603290422AD01F4A0A
:101A60007832904226D01D4A9032904222D01B4AB2
:101A7000A83290421ED01A4A90421BD0184A143203
:101A8000904217D0164A2832904213D0144A3C3262
:101A900090420FD0124A503290420BD0104A64321A
:101AA000904207D00E4A7832904203D00C4A8C32D2
:101AB00090420BD1D4E919024260E06E30B1026865
:101AC00022F480720260D4E91C024260002084F893
:101AD000340084F8351052E7100002401004024030
:101AE000085402582DE9F05F28B190F8351002290A
:101AF00004D0802141650120BDE8F09F8F4A8F4BC3
:101B00008E4C18328D4D48338C4E60348B4F783567
:101B1000DFF828829036DFF82492A837DFF820E239
:101B2000DFF81CA209F13009DFF814C20EF1780EBB
:101B300001680AF1900ADFF808B20CF1A80C4145DF
:101B40002DD091422BD0494529D0994227D0A1428E
:101B500025D0A94223D0B14221D0B9421FD0594546
:101B60001DD0DFF8DC8108F11808414517D0DFF8F7
:101B7000D08108F13008414511D0DFF8C48108F167
:101B8000480841450BD0DFF8B88108F160084145AD
:101B900005D0714503D0514501D0614529D14FF0A1
:101BA000040880F83580654881421DD091421BD0E1
:101BB000494519D0994217D0A14215D0A94213D056
:101BC000B14211D0B9420FD059450DD05C48183000
:101BD000814209D05A483030814205D058484830B7
:101BE000814201D056486030086820F0010008604A
:101BF000A2E0D1F8008028F00E08C1F80080DFF8DC
:101C00003C810168414525D0914223D0494521D0EE
:101C100099421FD0A1421DD0A9421BD0B14219D078
:101C2000B94217D0594515D0DFF8148108F11808CA
:101C300041450FD0DFF8088108F13008414509D04F
:101C4000DFF8FC8008F14808414503D0DFF8F08058
:101C500008F16008D1F8008028F00108C1F8008080
:101C6000DFF8D8800168414544D0914242D04945CF
:101C700040D099423ED0A1423CD0A9423AD0B14294
:101C800038D0B94236D0594534D02D4A1832914215
:101C900030D02B4A303291422CD0294A48329142DE
:101CA00028D0274A6032914224D0714522D0514534
:101CB00020D061451ED0234A91421BD0214A1432C4
:101CC000914217D01F4A2832914213D01D4A3C320C
:101CD00091420FD01B4A503291420BD0194A6432C4
:101CE000914207D0174A7832914203D0154A8C327C
:101CF000914218D1016E0A6822F480720A6090F84D
:101D00005C20816D02F01F0301229A404A60D0E9F5
:101D100019124A60C16E31B10A6822F480720A60F9
:101D2000D0E91C124A60002180F83410012180F8AB
:101D30003510016D01B188470020DDE6100002403A
:101D400010040240085402582DE9F05F04007DD0D1
:101D5000734A734B724E1832714F303370494836A4
:101D6000DFF8BCC16037DFF8B881DFF8B4910CF15F
:101D7000780CDFF8B0B108F19008DFF8A8E109F1BC
:101D8000A80920680BF1180BDFF898A10EF1300EAE
:101D9000884221D090421FD098421DD0B0421BD023
:101DA000B84219D0604517D0404515D0484513D0EA
:101DB000504511D058450FD070450DD0594D48357C
:101DC000A84209D0574D6035A84205D0554D783509
:101DD000A84201D0534D9035056825F001050560F6
:101DE00020680025884227D0904225D0984223D0F1
:101DF000B04221D0B8421FD060451DD040451BD015
:101E0000484519D0504517D0584515D0704513D0C6
:101E10004449483188420FD04249603188420BD052
:101E200040497831884207D03E499031884203D0FA
:101E30003C49A831884218D1056020684560206877
:101E400085602068C5602068056100E065E0216864
:101E5000212048612046FEF7DDFE94F85C1001F079
:101E60001F023F219140816031E02F4988421BD001
:101E70002D491431884217D02B492831884213D07C
:101E800029493C3188420FD02749503188420BD034
:101E900025496431884207D023497831884203D0EC
:101EA00021498C31884238D105602068456020681E
:101EB00085602068C560206805612046FEF7AAFE9F
:101EC00094F85C1001F01F0201219140416020460E
:101ED000FEF7FCFE206E18B10560D4E919014160DF
:101EE0006068401E072807D82046FEF73FFFE06ED7
:101EF0000560D4E91C014160E56625676567E56317
:101F000025646564A564E5642565656584F83550D8
:101F1000002084F83450BDE8F09F0120FBE700006A
:101F20001000024010040240085402582DE9FC5FE2
:101F30000446002000904FF41651F9480068B0FBA9
:101F4000F1F00190A56D2E682A68F64FDFF8D48372
:101F5000DFF8D0A3DFF8CCB308F1180820680AF145
:101F6000300ADFF8C4930BF1480BB84238D0414631
:101F7000884235D0504533D0584531D0E949603199
:101F800088422DD0E7497831884229D0E5499031FF
:101F9000884225D0E349A831884221D048451FD046
:101FA000E149183188421BD0DF493031884217D0CF
:101FB000DD494831884213D0DFF86CE30EF1600E42
:101FC00070450DD0D84B7833984209D0DFF858C30C
:101FD0000CF1900C604503D0D349A83188427DD1E3
:101FE00094F85C10082301F01F0103FA01F2324259
:101FF0004CD0B84233D0404531D050452FD0584511
:102000002DD0C8496031884229D0C64978318842EC
:1020100025D0C4499031884221D0C249A831884294
:102020001DD048451BD0C0491831884217D0BE4941
:102030003031884213D0BC49483188420FD0BA4968
:10204000603188420BD0B8497831884207D0B64910
:102050009031884203D0B449A831884203D1016845
:1020600001F0040102E0016801F0080171B10168AA
:1020700021F00401016094F85C0000F01F0003FAF5
:1020800000F2AA60606D40F00100606594F85C00A9
:10209000012100F01F008140314241D02068B84248
:1020A00035D0404533D0504531D058452FD09D4A8A
:1020B000603290422BD09B4A7832904227D0994A86
:1020C0009032904223D0974AA83290421FD0484580
:1020D0001DD0954A1832904219D000E0B4E1924ADE
:1020E0003032904213D0904A483290420FD08E4AFC
:1020F000603290420BD08C4A7832904207D08A4AA4
:102100009032904203D0884AA83290427ED14069F2
:1021100010F0800F04D0A960606D40F0020060658F
:1021200094F85C00042100F01F00814031423FD050
:102130002068B84233D0404531D050452FD0584563
:102140002DD0784A6032904229D0764A7832904237
:1021500025D0744A9032904221D0724AA8329042DF
:102160001DD048451BD0704A1832904217D06E4A95
:102170003032904213D06C4A483290420FD06A4AB3
:10218000603290420BD0684A7832904207D0664A5B
:102190009032904203D0644AA83290424FD10068F6
:1021A00010F0020F04D0A960606D40F0040060657B
:1021B00094F85C00102100F01F008140314259D09A
:1021C0002068B84235D0404533D0504531D05845CD
:1021D0002FD0544A603290422BD0524A78329042EB
:1021E00027D0504A9032904223D04E4AA832904293
:1021F0001FD048451DD04C4A1832904219D04A4A47
:102200003032904215D0484A483200E015E0904202
:102210000FD0454A603290420BD0434A7832904208
:1022200007D0414A9032904203D03F4AA8329042B0
:1022300007D1006800F0080006E0006870E7006859
:10224000B6E7006800F00400A0B1A960206801684A
:10225000490304D50068000308D5A16C07E00168B4
:10226000C90503D4016821F008010160216C09B19E
:102270002046884794F85C00202100F01F00814030
:10228000314278D02068B84233D0404531D05045F3
:102290002FD058452DD0234A6032904229D0214A70
:1022A0007832904225D01F4A9032904221D01D4A68
:1022B000A83290421DD048451BD01B4A183290428C
:1022C00017D0194A3032904213D0174A4832904200
:1022D0000FD0154A603290420BD0134A78329042A8
:1022E00007D0114A9032904203D00F4AA832904250
:1022F00003D1006800F0100002E0006800F0020066
:10230000A0B3A96094F835000428206801680DD0B6
:1023100049037DD50068000329D4616C28E00000E2
:102320002C900224100002401004024021F01601FB
:1023300001602068416921F080014161206C08B989
:10234000A06C20B12068016821F00801016094F8B8
:102350005C0000F01F013F208840A860002084F846
:102360003400012084F83500216D66E003E0E16B64
:1023700009B120468847606D00287DD0606DC00798
:102380005AD0042084F835002068B8422BD040454C
:1023900029D0504527D0584525D0A049884222D081
:1023A0009E49183188421ED09C49303188421AD04B
:1023B0009A494831884216D0484514D098498842F5
:1023C00011D09749183188420DD095493031884253
:1023D00009D093494831884205D0914960318842FB
:1023E00001D08F497831016821F001010160216835
:1023F0000098019A401C0090904202D80868C007DB
:10240000F6D1002084F834000868C00711D000E03D
:1024100001E003200EE00168C905A8D4016821F09D
:1024200010010160002084F83400012084F8350098
:102430009DE7012084F83500E16C00291CD002B032
:102440002046BDE8F05F0847764988421DD07549AF
:102450001431884219D073492831884215D0714906
:102460003C31884211D06F49503188420DD06D49BE
:102470006431884209D000E086E06A4978318842B8
:1024800003D068498C3188427ED101684FF004083E
:1024900094F85C6006F01F0608FA06F818EA020FC6
:1024A000CDF8008047D05FEA417844D50098686055
:1024B000080403D5C8033CD4A16CBEE7880638D411
:1024C0002068B8422DD055494839884229D0504516
:1024D00027D0584525D05149884222D04F4918313C
:1024E00088421ED04D49303188421AD04B4948317C
:1024F000884216D0484514D04949884211D04849ED
:10250000183188420DD046493031884209D0704593
:1025100007D0984205D0604503D0414990318842A8
:1025200003D1016821F0080102E0016821F00401F3
:102530000160216C81E74FF0020808FA06F818EAFA
:10254000020FCDF800804FD05FEA81784CD500981B
:102550006860080403D5C80344D4616C6DE788063D
:1025600040D42068B8422FD02C49483988422BD01B
:10257000504529D0584527D02849884224D027499A
:102580001831884220D000E045E0244930318842AB
:102590001AD022494831884216D0484514D02049E3
:1025A000884211D01E49183188420DD01C49303163
:1025B000884209D0704507D0984205D0604503D0C5
:1025C00017499031884203D1016821F0140102E0DB
:1025D000016821F00A010160002084F83400012024
:1025E00084F83500E16B28E70823B340134212D08A
:1025F000090710D5016821F00E01016094F85C0014
:1026000000F01F01012000FA01F1696060650021FE
:1026100084F834100EE7BDE8FC9F00007000024013
:1026200028040240085402582DE9F05F044600F0E7
:102630007DFD0646F4B3E24F0222DFF884830025D5
:10264000DFF87C93DFF878A308F13008DFF870B387
:1026500009F1480920680AF1600A0BF1780BB842C9
:1026600034D0D7491831884230D040452ED0484523
:102670002CD050452AD0584528D0D1499031884295
:1026800024D0CF49A831884220D0CE4988421DD0DD
:10269000CC491831884219D0CA493031884215D006
:1026A000C8494831884211D0C649603188420DD0AE
:1026B000C44900E042E07831884207D0C1499031F6
:1026C000884203D0BF49A83188427CD184F8345075
:1026D00084F83520B8422CD0B9491831884228D026
:1026E000404526D0484524D0504522D0584520D0DA
:1026F000B349903188421CD0B149A831884218D0E2
:10270000B049884215D0AF491831884211D0AD493F
:10271000303188420DD0AB494831884209D0A949AF
:102720006031884205D0A7497831884201D0A54957
:102730009031016821F00101016009E00120BDE84C
:10274000F09F00F0F3FC801B052801D9202015E143
:1027500020680068C007F4D1226811689A480140D7
:10276000D4E902031843D4E9043633431843A36978
:102770001843E3691843236A18430843616A04292C
:1027800003D1D4E90B1319430843904909686FF347
:102790000F01B1F1005F0FD36168A1F12903052B8F
:1027A00008D9163B032B05D9083B012B02D94F3919
:1027B000032901D840F4801010602068406920F09F
:1027C0000701606A00E01CE0042840EA01060BD122
:1027D000A06A0643E06A38B12046FEF705FB18B14F
:1027E000402060650120CBE0206846612046FEF76E
:1027F00011FA94F85C1001F01F023F2191408160B2
:1028000056E0734988421BD0714B1433984217D05D
:102810006F4B2833984213D06D4B3C3398420FD006
:102820006B4B503398420BD0694B6433984207D0BE
:10283000674B7833984203D0654B8C3398427DD1F7
:10284000884201D06249143184F8345084F835202C
:10285000026860490A40A168402970D080296FD081
:102860000021E36841EAD301236941EAD3016369A6
:1028700041EAD301A36941EAD301E36941EAD30103
:10288000236A41EA1311114301605149206849420A
:1028900008441421B0FBF1F08000E0652046FEF70B
:1028A000B9F994F85C1001F01F02012191404160D8
:1028B0002068B84255D042491831884251D040452D
:1028C0004FD048454DD050454BD0584549D03C4954
:1028D0009031884245D03A49A831884241D039499F
:1028E00088423ED03749183188423AD03549303194
:1028F000884236D033494831884232D0314960313C
:1029000088422ED02F49783188422AD02D499031E3
:10291000884226D02B49A831884222D02C498842AF
:102920001FD02B49143188421BD0294928318842B5
:1029300017D027493C31884213D002E01DE017E050
:1029400018E02349503188420BD021496431884234
:1029500007D01F497831884203D01D498C31884205
:1029600028D12046FEF7B2F9A06880280BD00BE0F2
:10297000102176E74FF4804173E740206065032023
:1029800084F83500DAE66560216E20790860D4E9C4
:10299000190141606068401E072808D82046FEF7EC
:1029A000E5F9E06E0560D4E91C01416002E0E566EE
:1029B000256765676565012084F835000020BEE65F
:1029C00010000240100402403F8010FE0010005C26
:1029D000085402580F00FEFF002310B580B190F894
:1029E0003440012C0ED0012480F8344090F835405A
:1029F000012C09D00123002180F83410184610BDA5
:102A0000012010BD022010BD0629F4D2DFE801F03C
:102A1000030507090B0DC263EDE70264EBE74264AF
:102A2000E9E78264E7E7C264E5E70265E3E70000FF
:102A30002DE9F84F04004FF00000009014D094F8F6
:102A40003400012812D0012084F8340094F8355065
:102A50000020012D0CD084F834004FF40060606534
:102A600001200090BDE8F88F0120FBE70220F9E784
:102A7000022584F835506065974D974E964F18356E
:102A8000DFF854C23036DFF850824837DFF848921A
:102A9000DFF844A208F16008DFF83CB209F17809D8
:102AA00020680AF1900A0BF1A80B604533D0A842C8
:102AB00031D0B0422FD0B8422DD040452BD0484520
:102AC00029D0504527D0584525D0DFF810C26045A1
:102AD00021D0DFF808C20CF1180C60451BD0DFF8DC
:102AE000FCC10CF1300C604515D0DFF8F0C10CF1E1
:102AF000480C60450FD0DFF8E4C10CF1600C604574
:102B000009D0DFF8D8C10CF1780C604503D0DFF8AC
:102B1000CCC10CF1900CD0F800C02CF0010CC0F826
:102B200000C02046FEF78AF96B49206888422CD005
:102B3000A8422AD0B04228D0B84226D0404524D05E
:102B4000484522D0504520D058451ED0634A904277
:102B50001BD0624A1832904217D0604A30329042FD
:102B600013D05E4A483290420FD05C4A60329042A5
:102B70000BD05A4A7832904207D0584A903290424D
:102B800003D0564AA83290420CD1026822F01E02AD
:102B900042F016020260206C88B12068026842F0A0
:102BA00008020BE0026822F00E0242F00A02026004
:102BB000206C20B12068026842F0040202602068A4
:102BC00088424BD0A84249D0B04247D0B84245D005
:102BD000404543D0484541D050453FD058453DD071
:102BE0003E4A90423AD03D4A1832904236D03B4A53
:102BF0003032904232D0394A483290422ED0374A51
:102C0000603290422AD0354A7832904226D0334AF8
:102C10009032904222D0314AA83290421ED0304A9F
:102C200090421BD02E4A1432904217D02C4A2832A0
:102C3000904213D02A4A3C3290420FD0284A503258
:102C400090420BD0264A6432904207D0244A783210
:102C5000904203D0224A8C3290420DD1206E0268FD
:102C6000D20303D5026842F480720260E06E18B1AC
:102C7000026842F4807202602068884226D0A8422E
:102C800024D0B04222D0B84220D040451ED0484582
:102C90001CD050451AD0584518D01049884215D03C
:102CA0000E491831884211D00C49303188420DD07C
:102CB0000A494831884209D008496031884205D024
:102CC00006497831884201D004499031016841F0C9
:102CD000010101600098C5E61000024010040240A6
:102CE0000854025870B5044600F020FA0546601CEE
:102CF00002D004480078044400F018FA401BA042B7
:102D0000FAD370BD209002240248016841F001010D
:102D100001607047200400582DE9F04186B014216D
:102D20006846FDF7B9FB18480168002929D14FF022
:102D30000108C0F800801548016841F48051016025
:102D4000006802240025694600F48050059003269F
:102D50004CF2B3700C278DE8F1000D4800F0E6F856
:102D600001AACDF800800B48694682E8F00000F027
:102D7000DDF84FF6807069468DE8F100064800F0F6
:102D8000D5F806B0BDE8F08118900224D44402586A
:102D9000000C025800140258001002582DE9F04FA0
:102DA000504C00224FF0010B4FF00F0A93E00BFA4A
:102DB00002F818EA01037CD022F0030505F1B045C2
:102DC000D5F808C49607370F0AFA07F606EA0C0981
:102DD000DFF814C1604502D14FF0000C40E0DFF88D
:102DE0000CC1604502D14FF0010C39E0DFF800C1A1
:102DF000604502D14FF0020C32E0DFF8F8C06045C8
:102E000002D14FF0030C2BE0DFF8ECC0604502D19B
:102E10004FF0040C24E0DFF8E4C0604502D14FF02D
:102E2000050C1DE0DFF8D8C0604502D14FF0060C5C
:102E300016E0DFF8D0C0604502D14FF0070C0FE07C
:102E4000DFF8C4C0604502D14FF0080C08E0DFF89D
:102E5000BCC0604502D14FF0090C01E04FF00A0CF4
:102E60000CFA07FCCC4518D127689F432760676898
:102E70009F4367604FF0B047D7F800C02CEA030CBF
:102E8000C7F800C0D7F804C02CEA030CC7F804C088
:102E9000D5F80834B343C5F8083405685600032351
:102EA000B3401D430560D50800EB85052F6A560722
:102EB00000E00FE04FEAD66C0AFA0CF6B7432F6237
:102EC000C5689D43C560456825EA08054560856875
:102ED0009D438560521C31FA02F37FF468AFBDE870
:102EE000F08F0000800000580000025800040258D3
:102EF00000080258000C0258001002580014025832
:102F000000180258001C02580020025800240258E1
:102F100070474FF0B04110B5D1F88820024203D07D
:102F2000C1F88800FFF7F4FF10BD00002DE9F84F4D
:102F3000664C00224FF0B04E4FF0030A4FF00F0BDB
:102F4000BDE001269640334070D04D68012D05D07C
:102F5000022D03D0112D01D0122D15D187685500F7
:102F60000AFA05FC27EA0C07D1F80CC00CFA05FC9C
:102F70004CEA070CC0F808C04568B5430E79C6F3A3
:102F8000001696402E434660C66857008D680AFAC0
:102F900007F926EA0906BD403543C5604D68022D94
:102FA00001D0122D12D1D50800EB850CDCF8206081
:102FB0005507ED0E0BFA05F826EA0806D1F8108041
:102FC00008FA05F848EA0608CCF8208005680E796A
:102FD00025EA090506F00306BE402E4306604D684B
:102FE000ED006BD53A4D2E6846F002062E602D6836
:102FF00022F0030606F1B04605F002050095D6F86A
:1030000008C495072F0F0BFA07F52CEA050C314D74
:10301000A84201D100252EE02F4DA84201D1012563
:1030200029E02E4DA84202D1022524E046E02C4D95
:10303000A84201D103251EE02A4DA84201D1042552
:1030400019E0294DA84201D1052514E0274DA842D9
:1030500001D106250FE0264DA84201D107250AE03F
:10306000244DA84201D1082505E0234DA84201D1F5
:10307000092500E00A25BD4045EA0C05C6F80854BC
:1030800025684E689D43F60300D51D43256065689D
:103090004E689D43B60300D51D436560DEF80050C1
:1030A00076464F689D43FF0200D51D433560756825
:1030B0004F689D43BF0200D51D437560521C0B68CD
:1030C00033FA02F57FF43DAFBDE8F88F8000005879
:1030D000F444025800000258000402580008025844
:1030E000000C025800100258001402580018025830
:1030F000001C0258002002580024025800690840B1
:1031000000D001207047426921EA02030A4043EAE5
:103110000241816170470AB1816170470904FBE790
:1031200001480068000C70470010005C0FF07AB98D
:1031300010B501F09DFF0E4CB0FBF4F10DA008F0AE
:1031400061FE01F04FFFB0FBF4F117A008F05AFE4A
:1031500001F06AFFB0FBF4F11FA008F053FE01F08C
:1031600075FFB0FBF4F1BDE8104028A008F04ABE9E
:1031700040420F005B48414C5F4765745F435055C8
:103180005F5243435F436C6F636B5D48414C5F52DA
:1031900043435F537973436C6F636B467265713A57
:1031A00025644D487A0D0A005B48414C5F476574C1
:1031B0005F4350555F5243435F436C6F636B5D48A1
:1031C000414C5F5243435F48434C4B467265713AF2
:1031D00025644D487A0D0A005B48414C5F47657491
:1031E0005F4350555F5243435F436C6F636B5D4871
:1031F000414C5F5243435F50434C4B3146726571C3
:103200003A25644D487A0D0A000000005B48414CA5
:103210005F4765745F4350555F5243435F436C6F34
:10322000636B5D48414C5F5243435F50434C4B32AC
:10323000467265713A25644D487A0D0A0000000017
:10324000032010B500F096F801F012FF0F4A116844
:103250001268C1F303230E49CB5C03F01F03D8406F
:1032600002F00F02895C0B4A01F01F0120FA01F104
:10327000116009490860002000F010F808B1012031
:1032800010BD00F02BF8002010BD000018440258BB
:10329000DC380108309002242C90022470B50D4DCA
:1032A00004462A78A2B14FF47A700B49B0FBF2F0D1
:1032B0000968B1FBF0F003F063F948B9102C07D2AC
:1032C00000222146501E00F035F800206C6070BDD1
:1032D000012070BD209002242C900224054808B5DE
:1032E000016841F002010160006800F002000090F6
:1032F00008BD0000F444025800280DDB012100F055
:103300001F0291404009800000F1E020C0F88011C8
:10331000BFF34F8FBFF36F8F7047002809DB012188
:1033200000F01F0291404009800000F1E020C0F849
:10333000001170470E4BF0B41B68C3F30223C3F1B6
:103340000704042C00D904241D1D072D01D20023DD
:1033500000E0DB1E012606FA04F56D1E0D409D40BF
:103360009E40761E164045EA0601F0BC08F06EBD90
:103370000CED00E0064A00F0070110684FF6FF036D
:10338000184040EA012003490843106070470000DC
:103390000CED00E00000FA0501680122C0F8FC23F2
:1033A000002280F8F423886940F000608861486D4D
:1033B000024A1043486500207047000003000010D7
:1033C00070470068416200207047F0B50368586A92
:1033D00039B19C6A4FF4827500EB144400204E1EF4
:1033E0000AE040EA024098620FE005EB8007DF59EF
:1033F000401CC0B204EB1744B042F6D344EA02408A
:103400004FF4807202EB810158500020F0BDD0F8DB
:10341000040407F096BBC1EBC10200EB8202D0F8B6
:103420000404926C07F0FABAC1EBC10200EB82020D
:10343000D0F80404D2F8082207F044BB10B5040009
:1034400006D0032084F8BD03206808F0A5FC08B16D
:10345000012010BD204600F0E1FB002084F8BD03F0
:1034600010BDD0F8040407F06EBB70B504464FF0F1
:10347000010201F00F004FF000050B06C0EBC00188
:1034800004EB810103D581F83D203C3103E081F854
:10349000FD5101F5FE71087094F8BC03012808D0B5
:1034A00084F8BC23206808F013F8002084F8BC538B
:1034B00070BD022070BD70B5044601F00F00626857
:1034C000904201D9012070BD0B064FF0010201F0BE
:1034D0000F014FF00005C1EBC10104EB810103D5E1
:1034E00081F83D203C3103E081F8FD5101F5FE718A
:1034F0008D70087094F8BC03012808D084F8BC23B0
:10350000206808F0DFF9002084F8BC5370BD022069
:1035100070BD10B5044690F8BC0301280AD0012004
:1035200084F8BC03080607D5206801F00F0108F0F5
:1035300029FB04E0022010BD206808F013FB0020E6
:1035400084F8BC0310BD01F00F01C1EBC10100EB19
:103550008100D0F8140270472DE9F04104464FF085
:10356000010601F00F004FF000050F06C0EBC0018F
:1035700004EB810103D581F83D603C3103E081F823
:10358000FD5101F5FE7108708A60CB704A7802B176
:10359000C880022B00D10D7194F8BC03012809D01A
:1035A00084F8BC63206807F0E7FE284684F8BC5323
:1035B000BDE8F0810220FBE770B501F00F040D4675
:1035C000C4EBC40100EB8101C1F810320023C1F843
:1035D0000822C1F8143281F8FD3181F8FC4101F56F
:1035E000FE710369012B00D10A612A07027C006881
:1035F00003D008F0BFF9002070BD08F0ABF8FAE77F
:1036000070B504460D4601F00F006168884201D98B
:10361000012070BD29064FF000064FF0010207D5CA
:10362000C0EBC00104EB810181F83D203C3107E093
:10363000C5EBC50104EB810181F8FD6101F5FE7167
:103640008A70087094F8BC03012807D084F8BC2362
:10365000206808F063F9280702D007E0022070BD57
:10366000217C04F57172206808F000F9002084F8CC
:10367000BC6370BD70B501F00F040D46C4EBC4010E
:1036800000EB81010B6500238A644B65012381F8FF
:103690003D3001F83C4F0369012B00D10A612A0734
:1036A000027C006803D008F065F9002070BD08F0C6
:1036B00051F8FAE72DE9F84F05680446284608F066
:1036C00080FA00287ED1206808F0A7FA002879D077
:1036D000206808F0A2FA800704D52068416901F04B
:1036E00002014161206808F098FAC10604F5717082
:1036F000009034D52068816921F0100181612F6A22
:1037000007F00F00C0EBC00004EB8006C7F3434096
:10371000022806F5FE7602D0062811D01AE047F6F8
:10372000F070074216D0C7F30A12F1681746284610
:1037300008F077FAF0683844F060B069384408E07F
:1037400000990822284608F06CFAB069C7F30A11FC
:103750000844B0612068816941F0100181612068EE
:1037600008F05BFA00034FF0010B5AD520680026E1
:1037700008F032FADFF89CA380464FE05FEAC87099
:1037800049D02068F1B208F040FA0746C00707D0D8
:1037900005EB4611C1F808BB3146204604F03AFA61
:1037A000380722D505EB46110820C1F8080B206820
:1037B000D0F8409000EB4610D0F8081BD14507D94F
:1037C000090400E0A4E103D54FF40041C0F8081B50
:1037D000204600F0C9FAD14507D92069012804D153
:1037E00020680121009A08F041F8F80604D505EB9D
:1037F00046111020C1F8080BB80604D505EB461198
:103800002020C1F8080BB80405D505EB46114FF48C
:103810000050C1F8080B761C4FEA5808B8F1000FA9
:10382000ACD1206808F0F9F940034FF000095BD5EE
:10383000206808F0CAF90026804652E05FEAC870A6
:103840004CD02068F1B208F0CEF90746C00723D06B
:1038500006F00F020BFA02F0D5F834288243C5F8BF
:10386000342805EB4610C0F808B9206901280FD1AB
:10387000C6EBC60004EB8000D0E91121114481643D
:1038800036B9206D20B920680121009A07F0EEFFBB
:103890002046F1B2FFF7BFFD380704D505EB46110E
:1038A0000820C1F80809F80604D505EB46111020D8
:1038B000C1F80809780604D505EB46114020C1F887
:1038C0000809B80704D505EB46110220C1F808091C
:1038D000380603D53146204604F002FA761C4FEA3A
:1038E0005808B8F1000FA9D1206808F096F900280F
:1038F00011DAD5F8040820F00100C5F8040894F89E
:10390000F403012839D0204600F012FA20684169FA
:1039100001F000414161206808F07FF900050BD5F6
:10392000D5F80808C00702D0204600F06BFA2068DE
:10393000416901F400614161206808F06EF90001FD
:103940000AD52068416901F00061416194F8F403EF
:10395000D0B1204600F056FA206808F05EF9C004A5
:1039600075D5D5F8040820F00100C5F804082068D2
:10397000102108F007F9002134E00021204684F8E6
:10398000F493FFF71DFDC1E784F8F4B32068406DA0
:103990000121C0F38300C4F8F8032046FFF710FDAF
:1039A000DAE705EB41104FF67F32C0F80829D0F86E
:1039B000003923F40013C0F80039D0F8003943F07F
:1039C0000063C0F80039C0F8082BD0F8002B22F4AF
:1039D0000012C0F8002BD0F8002B42F00062C0F8B3
:1039E000002B491C60688842DBD8D5F81C0840F0E1
:1039F0000110C5F81C08206B60B1D5F8840840F0B0
:103A00000B00C5F88408D5F8440840F00B00C5F851
:103A100044080CE0D5F8140842F22B010843C5F81D
:103A20001408D5F8100840F00B00C5F81008D5F8B8
:103A3000000820F4FE60C5F80008217C2068009A88
:103A400007F014FF2068416901F48051416120684A
:103A500008F0E3F8800415D5206807F0CDFC206855
:103A600008F0A2F8E06001F0BDFA227B0146206870
:103A700008F01EF9204600F045F92068416901F47C
:103A800000514161206808F0C8F8000707D52046BA
:103A900000F052F92068416901F008014161206895
:103AA00008F0BBF8C00208D50021204600F034F829
:103AB0002068416901F480114161206808F0ADF887
:103AC000800208D50021204600F02AF820684169CC
:103AD00001F400114161206808F09FF8400007D50B
:103AE0002046FFF794FC2068416901F08041416164
:103AF000206808F092F840070AD5206845686807F2
:103B000002D52046FFF7ADFC20684168294341609B
:103B1000BDE8F88F0A30544FD0F8040407F06EB8AF
:103B2000D0F8040407F07AB82DE9F04104008AB017
:103B300005D094F8BD032668002520B108E00120D7
:103B40000AB0BDE8F081204684F8BC5300F082F84A
:103B5000032084F8BD03F06BC00500D42561206804
:103B600007F0F2FD04F11001684628228846FCF7B0
:103B70007AFC94E80F0007F04DFC0227D8BB2068C0
:103B8000002108F06DF80021012610E0C1EBC10012
:103B900004EB800080F83D6080F83C10A0F84210F3
:103BA000491C80F83F50C9B245648564056560686A
:103BB0008842EBD8002111E0C1EBC10004EB80008A
:103BC00080F8FD5180F8FC11491C80F8FF51C9B202
:103BD000C0F80452C0F80852C0F810526068884219
:103BE000EAD8282241466846FCF73DFC94E80F00DD
:103BF00007F0F2FC10B184F8BD73A0E784F83850E8
:103C000084F8BD63606A012802D12046FFF7C4FB37
:103C1000206807F0D3FC002092E7000010B5006890
:103C2000094988420ED10948016821F0006101600C
:103C300007484FF4C051FFF7B1F8BDE810406520C8
:103C4000FFF75ABB10BD000000000840D8440258DE
:103C50000000025870B5B6B0044614212FA8FCF736
:103C60001BFCBC216846FCF717FC234920688842EE
:103C70003FD14FF4802000900AA9052009906020D0
:103C800002240A2581E83100A00200261096CDE921
:103C90000D4080022190684600F002FC08B1FDF75B
:103CA000E1F900F0C7F81548016841F00101016031
:103CB00000682FA900F0010034904FF4C05081E853
:103CC00051000320CDE932050D48FFF72FF90B48CD
:103CD0000838016841F00061016000680022114667
:103CE00000F0006034906520FFF724FB6520FFF7AB
:103CF00014FB36B070BD000000000840E0440258DC
:103D00000000025870B50446C068012570B1022851
:103D100001D0FDF7A7F9D4F80404294606F0EAFF1C
:103D2000D4F80404BDE8704006F09DBF0025F2E71A
:103D3000D0F8040406F0C4BFD0F8040406F0CABFEB
:103D400010B5044690F8BC0301280BD0012084F87C
:103D5000BC0384F83810206807F099FF002084F82D
:103D6000BC0310BD022010BDD0F8042400F5717111
:103D7000104606F0CBBF10B50446006894F8BC139B
:103D8000012906D0012184F8BC13A16A012902D0BF
:103D900008E0022010BDA169012903D0816B41F424
:103DA00080318163206807F0D7FE206807F0F8FBB8
:103DB000002084F8BC0310BD70B50568044690F877
:103DC000BC03012810D0012084F8BC03284607F06A
:103DD000BBFC206807F0F2FB2068102107F0D2FE40
:103DE000A06A012802D008E0022070BDA069012865
:103DF00003D0A86B20F48030A863002084F8BC03B3
:103E000070BD000010B50446D0F8040406F0C9FFE8
:103E10002068D0F8001E41F00101C0F8001E206AA1
:103E2000002804D00248016841F00601016010BD7D
:103E300010ED00E00248016841F0807101607047B8
:103E40000C48025810B501F0CDF805490968054A3B
:103E5000C1F30211515C01F01F01C84010BD000008
:103E600020440258DC3801084F4910B50A68096837
:103E700002F003024C4B1B1DC1F305111B684A4C99
:103E800003F001030C3424680029C4F3CC0414FBB0
:103E900003F300EE103AB8EE400A7FD09FED431ACC
:103EA0009FED432A404BF7EE000A083322B1012A66
:103EB00066D0022A22D16AE03B4A283A1468A40656
:103EC0001CD51268C2F3C1043A4AE24001EE902ABE
:103ED000F8EE612A01EE901AF8EE611A196882EE86
:103EE000A12AC1F3080101EE901AF8EE611A40EE22
:103EF000011A31EEA00A22EE000A12E001EE901A39
:103F00001968F8EE611AC2EE212AC1F3080101EE28
:103F1000901AF8EE611A40EE011A31EEA00A22EE74
:103F2000800A1968C1F3462101EE101AB8EE411A51
:103F300031EE201AC0EE011ABCEEE11A80ED001A33
:103F40001968C1F3064101EE101AB8EE411A31EEBC
:103F5000201AC0EE011ABCEEE11A80ED011A1968B0
:103F6000C1F3066101EE101AB8EE411A71EE200A93
:103F700080EE201ABCEEC10A80ED020A10BD0DE0F1
:103F800001EE901ADFED0C2AF8EE611AA6E701EEB9
:103F9000901ADFED0A2AF8EE611A9FE7002101600E
:103FA00041608160EAE700002844025800000039BF
:103FB0000024744C0090D0030024744A20BCBE4BF3
:103FC000484910B50A68096802F00302454B1B1DF9
:103FD000C1F305311B68434C1434C3F30013246848
:103FE000C4F3CC0414FB03F300EE103AB8EE400A1D
:103FF000E9B33C4B9FED3C1A1033F7EE000A62B177
:10400000DFED3A1A012A01D0022A5ED002EE101A20
:10401000F8EE422A81EEA22A1AE0324A283A1468BF
:10402000A4060DD51268C2F3C104314AE24001EE84
:10403000902AF8EE612A01EE901AF8EE611A05E076
:1040400001EE901ADFED2B2AF8EE611A82EEA12A1A
:104050001968C1F3080101EE901A1968F8EE611AA7
:1040600040EE011A31EEA00A22EE000A00E033E031
:10407000C1F3462101EE101AB8EE411A31EE201AB2
:10408000C0EE011ABCEEE11A80ED001A1968C1F306
:10409000064101EE101AB8EE411A31EE201AC0EEB8
:1040A000011ABCEEE11A80ED011A1968C1F306612C
:1040B00001EE101AB8EE411A71EE200A80EE201AB5
:1040C000BCEEC10A80ED020A10BD01EE901ADFEDD0
:1040D0000A2AF8EE611AB9E70021016041608160A7
:1040E00010BD000028440258000000390024744A22
:1040F0000090D0030024744C20BCBE4B484910B53E
:104100000A68096802F00302454B1B1DC1F3055103
:104110001B68434C1C34C3F300232468C4F3CC0451
:1041200014FB03F300EE103AB8EE400AE9B33C4B3F
:104130009FED3C1A1833F7EE000A62B1DFED3A1A30
:10414000012A01D0022A5ED002EE101AF8EE422AAD
:1041500081EEA22A1AE0324A283A1468A4060DD544
:104160001268C2F3C104314AE24001EE902AF8EE2F
:10417000612A01EE901AF8EE611A05E001EE901A3C
:10418000DFED2B2AF8EE611A82EEA12A1968C1F33D
:10419000080101EE901A1968F8EE611A40EE011A52
:1041A00031EEA00A22EE000A00E033E0C1F346211E
:1041B00001EE101AB8EE411A31EE201AC0EE011AC3
:1041C000BCEEE11A80ED001A1968C1F3064101EE58
:1041D000101AB8EE411A31EE201AC0EE011ABCEEE8
:1041E000E11A80ED011A1968C1F3066101EE101A97
:1041F000B8EE411A71EE200A80EE201ABCEEC10A18
:1042000080ED020A10BD01EE901ADFED0A2AF8EEE9
:10421000611AB9E7002101604160816010BD0000B2
:1042200028440258000000390024744A0090D0034A
:104230000024744C20BCBE4B2DE9F04F954B4FF43D
:10424000807C934989B0DFF848924FF08056924ABB
:104250001C11DFF848825F0450396045A9F104055C
:104260002ED1D9F8000000F00700052824D2DFE89D
:1042700000F09CB78625AC0003A8FFF7F5FD049875
:1042800009B0BDE8F08F6846FFF79AFE0098F7E79F
:1042900006A8FFF733FF0698F2E70868C0F3C100ED
:1042A00023FA00F0ECE70B68DB057DD5B0427BD14B
:1042B0002046E5E71046E3E70020E1E74046DFE778
:1042C000B0F5007F1CD0DFF8C8C1B0F5806F0CF1ED
:1042D000080C26D0B0F5006F37D04FF4805A504507
:1042E0004FF4804B4FD1D9F8000000F4E040B0F516
:1042F000005F44D03DDC002857D05045DCD16FE052
:10430000D9F8000000F4E070802838D004DC0028E0
:104310004BD04028D0D163E0C028CFD06045CBD16E
:1043200053E0DCF8000000F46000B0F5800F26D008
:1043300004DCD0B3B0F5001FBED151E0B0F5C00F22
:10434000BCD0B0F5000FB7D13FE0DCF8000000F0C2
:10435000E060B0F1007F12D004DC30B3B0F1807FB8
:10436000AAD13DE0B0F1407FA8D0B0F1806FA3D1D9
:104370002BE0B0F5405FA1D058459DD125E00868FD
:10438000800099D584E7B0F5002F4FF4803812D023
:10439000404537D1286810F4803075D040458BD126
:1043A0000868000188D501E026E06DE06846FFF767
:1043B00007FE029864E7DCF8000010F440300FD0EC
:1043C000404511D0B0F5003F98D128680D6800F045
:1043D00040506D077FF567AF00287FF464AF5CE75E
:1043E00008680001CDD54EE708688000C9D506A849
:1043F000FFF784FE089843E709688903C1D5B842EE
:1044000088D157E758452BD1DCF8000000F0E04098
:10441000B0F1405F1CD00CDC90B1B0422CD0B8425F
:104420008AD108688000ACD506A8FFF767FE079818
:1044300026E7B0F1804F0FD0B0F1A04F90D11FE030
:10444000FFF700FD1CE76846FFF7BAFD019817E784
:104450000868400795D520E70868C00591D527E78B
:10446000B0F5004F89D1D9F8000010F0405007D0C6
:10447000B04209D0B84292D108680001E3D41BE7EA
:1044800008688003FBD515E708688001F7D5F3E6D7
:10449000504402580090D00340787D010080BB005A
:1044A0002DE9F84F0446006800252E46010104F16D
:1044B0002400FE4FDFF8F88300901DD5606E50B1E8
:1044C000B0F5801F0CD0B0F5001F0ED0B0F5401F26
:1044D0001DD001250FE0386840F40030386016E048
:1044E0000221201D03F048FC03E00098022103F0A4
:1044F000CDFC05000BD02E462088C00523D5606D6D
:1045000005281ED2DFE800F00C11161B1B00D8F89E
:104510000010626E21F440111143C8F80010EBE75F
:10452000386840F40030386009E00021201D03F0B5
:1045300023FC03E00098002103F0A8FC05466DB1C0
:1045400000E001252E462088800528D5A06D802812
:104550001ED00CDC90B140280ED114E0D8F8001029
:10456000626D21F007011143C8F80010EBE7C02885
:1045700013D0B0F5807F10D001250FE0386840F4EB
:104580000030386009E00021201D03F0F5FB03E056
:104590000098002103F07AFC054685B12E4620885C
:1045A000DFF8109340052CD5D4F8A400B0F5800FA7
:1045B00020D00DDCA0B1B0F5001F0FD115E0D8F868
:1045C0000010A26D21F4E0711143C8F80010E6E775
:1045D000B0F5C00F13D0B0F5000F10D001250FE0DB
:1045E000386840F40030386009E00021201D03F0F5
:1045F000C3FB03E00098002103F048FC054675B1B9
:104600002E46208800052DD5D4F8A800B0F1007FF3
:1046100021D00EDCA8B1B0F1807F10D116E0D9F81E
:104620000010D4F8A42021F460011143C9F800104F
:10463000E7E7B0F1407F13D0B0F1806F10D00125D3
:104640000FE0386840F40030386009E00021201D98
:1046500003F092FB03E00098002103F017FC0546ED
:104660006DB12E46206880011FD5A06CD8B11028EE
:104670000FD0202812D0302815D0012514E0D9F809
:104680000010D4F8A82021F0E0611143C9F800100F
:10469000E8E7386840F40030386004E00221201D6B
:1046A00003F06AFB05466DB12E462088C0042BD569
:1046B000E06DB0F5005F20D00DDCA0B1B0F5805FFB
:1046C0000FD115E07A48001F0168A26C21F030017B
:1046D00011430160E9E7B0F5405F13D0B0F5804FBA
:1046E00010D001250FE0386840F40030386009E050
:1046F0000021201D03F040FB03E00098002103F09F
:10470000C5FB054685B12E462088800429D5206E3C
:10471000B0F5403F23D010DC08B3B0F5803F14D093
:10472000B0F5003F0FD115E0D8F80010E26D21F48C
:10473000E0411143C8F80010E6E7B0F5802F0ED035
:10474000B0F5A02F0BD001250AE00121201D03F0B8
:1047500013FB03E00098012103F098FB05468DB19F
:104760002E46208840042AD5D4F8AC00B0F1405F32
:1047700023D010DC08B3B0F1805F14D0B0F1005F3B
:104780000FD115E0D8F80010226E21F4E02111437A
:10479000C8F80010E5E7B0F1804F0ED0B0F1A04F9F
:1047A0000BD001250AE00121201D03F0E5FA03E00A
:1047B0000098012103F06AFB05466DB12E46208862
:1047C00000041FD5E06ED8B1B0F1805F0ED0B0F11B
:1047D000005F10D0012514E0D9F80010D4F8AC2007
:1047E00021F0E0411143C9F80010E8E7386840F4CF
:1047F0000030386004E00121201D03F0BDFA0546B9
:104800006DB12E462068C0011ED5606CD0B1012864
:104810000ED0022811D0032814D0012513E0D8F8B7
:104820000010E26E21F040511143C8F80010E9E792
:10483000386840F40030386004E00221201D03F0A5
:104840009BFA054675B12E462068DFF86CB0400231
:104850005AD51A48016841F480710160FEF766FC80
:1048600082460EE01248001F0168626C21F00301CD
:1048700011430160E8E7FEF759FCA0EB0A00642849
:104880003AD80E480068C005F5D5B5BB09481830C0
:104890000068B4F8B01000F4407001F44071884230
:1048A00019D00448183001680AE000002C4402586E
:1048B00050440258584402581044025800480258C4
:1048C000026821F4407142F480320260026822F4EE
:1048D000803202600160D4F8B000B0F5807F22D150
:1048E000FEF724FC824609E0FEF720FCA0EB0A015B
:1048F00041F28830814201D9032504E0FE48006876
:104900008007F1D57DB12E462078DFF8F0A3C007EF
:104910003CD0A06F182837D025DC78B3082828D0E1
:10492000102824D12BE0D4F8B000C0F301210329D2
:104930000ED0DBF8001021F47C51CBF80010EE48CB
:104940000168B4F8B020C2F30B0211430160DBE749
:10495000DBF80020EA4B22F47C5203EA10100243F9
:10496000CBF80020EBE720280ED028280CD001251A
:104970000BE00121201D03F0FFF904E004E00098A2
:10498000012103F083FA05465DB12E4620788007A9
:104990001ED5606F062819D2DFE800F0160C11163C
:1049A0001616DAF80010A26F21F038011143CAF888
:1049B0000010EBE70121201D03F0DEF903E0009871
:1049C000012103F063FA054675B100E001252E468A
:1049D000207840071FD5D4F89000062819D2DFE8C8
:1049E00000F0160C11161616DAF80010626F21F09E
:1049F00007011143CAF80010EAE70121201D03F066
:104A0000BBF903E00098012103F040FA05469DB18F
:104A100000E001252E46207880062BD5D4F88C00A6
:104A2000B0F1405F24D011DC10B3B0F1805F15D03D
:104A3000B0F1005F10D116E0D9F80010D4F8902042
:104A400021F007011143C9F80010E4E7B0F1804FED
:104A50000ED0B0F1A04F0BD001250AE00021201D9F
:104A600003F08AF903E00098022103F00FFA0546EB
:104A70008DB12E46207840062BD5D4F89800B0F59D
:104A8000406F24D011DC10B3B0F5806F15D0B0F5B5
:104A9000006F10D116E0DAF80010D4F88C2021F065
:104AA000E0411143CAF80010E4E7B0F5805F0ED092
:104AB000B0F5A05F0BD001250AE00021201D03F016
:104AC0005BF903E00098022103F0E0F905468DB19F
:104AD0002E46207800062BD5D4F89C00B0F5C04FA8
:104AE00024D011DC10B3B0F5005F15D0B0F5804FC5
:104AF00010D116E0D9F80010D4F8982021F4E05134
:104B00001143C9F80010E4E7B0F5004F0ED0B0F53E
:104B1000204F0BD001250AE00021201D03F02CF9C5
:104B200003E00098022103F0B1F905464DB12E468D
:104B3000207800071ED5D4F88000B0F5805F0AD039
:104B40000FE0D9F80010D4F89C2021F46041114303
:104B5000C9F80010ECE70098022103F097F900B1C2
:104B60000126DAF80010D4F8802021F440511143D6
:104B7000CAF800102078C00613D5D4F89400B0F518
:104B8000807F05D10098022103F080F900B1012651
:104B9000D9F80010D4F8942021F440711143C9F8D9
:104BA00000102068000316D5D4F8A00038B1B0F585
:104BB000803F09D0B0F5003F0BD001250AE000216D
:104BC000201D03F0D9F803E00098022103F05EF9FC
:104BD000054685B12E462068400322D5D4F88400CE
:104BE000B0F5801F11D0B0F5001F13D0B0F5401FF5
:104BF00015D0012514E0D9F80010D4F8A02021F434
:104C000040311143C9F80010E5E7386840F400303E
:104C1000386004E00098012103F038F9054655B1E9
:104C20002E462068C0031CD5E06C70B1B0F5803F03
:104C300010D0012514E0DAF80010D4F8842021F413
:104C400040111143CAF80010EBE7386840F4003017
:104C5000386004E00221201D03F08EF80546CDB136
:104C60002E462068800005D50098022103F00EF939
:104C700000B10126206880031BD5E06FB8B1B0F504
:104C8000807F10D0B0F5007F11D0B0F5407F0ED0FE
:104C900001250DE0194808380168E26C21F48031E3
:104CA00011430160DDE7386840F4003038604DB3EF
:104CB0002E462068C00207D5D8F80010226F21F0D8
:104CC00000411143C8F800102068C00008D5DBF887
:104CD0000000D4F8B42020F480401043CBF800004A
:104CE0002068800207D5D8F80010A26E21F08071EC
:104CF0001143C8F8001006E07044025854440258AA
:104D0000CFFFFF0029E0206840000CD5DBF8001041
:104D100021F40041CBF80010DBF80010D4F8B820E3
:104D20001143CBF800102068002806DA104801680B
:104D3000226D21F04051114301602068000208D526
:104D4000DAF80010D4F8882021F440011143CAF8A1
:104D500000105EB10120BDE8F88FDAF80010E26FB4
:104D600021F440711143CAF80010A2E70020F2E7D5
:104D70004C4402582DE9F05F04000D467ED0DFF868
:104D80004492D9F8000000F00F00A8420CD2D9F8E4
:104D9000001021F00F012943C9F80010D9F80000D4
:104DA00000F00F00A84269D12078874E40070AD54D
:104DB0002069316801F07001884204D9316821F01E
:104DC0007001014331602078DFF8008200070CD5C4
:104DD00060694146D8F8002002F07002904204D980
:104DE0000A6822F0700202430A602078C0060CD5DF
:104DF000A0694146D8F8002002F4E062904204D94C
:104E00000A6822F4E06202430A602078DFF8C0B149
:104E100080060CD5E0695946DBF8002002F07002EC
:104E2000904204D90A6822F0700202430A60207896
:104E300080070AD5E068316801F00F01884204D983
:104E4000316821F00F01014331602078C0073DD067
:104E50003068A16820F47060084330605A49606887
:104E60001839022818D0032819D00968012819D048
:104E70004907002949DADFF850A100E045E0AAF12E
:104E8000080ADAF8001021F007010143CAF80010FF
:104E9000FEF74CF9074611E009688903E9E709685C
:104EA0008901E6E7C905E4E7FEF740F9C11B41F2D5
:104EB0008830814202D90320BDE8F09FDAF8000073
:104EC000616800F03800B0EBC10FEDD120788007A9
:104ED0000AD5E068316801F00F01884204D23168D8
:104EE00021F00F0101433160D9F80010484601F06C
:104EF0000F01A9420BD9016821F00F01294301607C
:104F0000006800F00F00A84201D00120D4E720780B
:104F100040070AD52069316801F07001884204D247
:104F2000316821F0700101433160207800070CD511
:104F300060694146D8F8002002F07002904204D225
:104F40000A6822F0700202430A602078C0060CD57D
:104F5000A0694246D8F8001001F4E061884204D20A
:104F6000116821F4E06101431160207880060CD5BE
:104F7000E0695946DBF8002002F07002904204D24A
:104F80000A6822F0700202430A6000F071F831688A
:104F9000C1F303220F498A5C02F01F02D04032683D
:104FA00002F00F02895C0C4A01F01F0120FA01F1A6
:104FB00011600A4908600A480068BDE8F05FFEF722
:104FC0006DB9000000200052184402581C440258D9
:104FD00020440258DC380108309002242C9002242E
:104FE0002490022400B500F043F80B4A11681268BF
:104FF000C1F303230949CB5C03F01F03D84002F03F
:105000000F02895C064A01F01F0120FA01F11160CC
:10501000044A1060084600BD18440258DC380108F4
:10502000309002242C90022400B5FFF7DBFF0549E5
:105030000968054AC1F30211515C01F01F01C84023
:1050400000BD00001C440258DC38010800B5FFF721
:10505000C9FF05490968054AC1F30221515C01F005
:105060001F01C84000BD00001C440258DC38010884
:10507000434830B50068444C10F03801414808D02E
:105080000211082903D010290BD018290BD0104683
:1050900030BD21688906FBD52168C1F3C101C84034
:1050A00030BD3A4830BD364918310A68096802F007
:1050B0000302334B1C33C1F305111B68304D03F061
:1050C000010324352D68C5F3CC0515FB03F300EE71
:1050D000103AB8EE400AE9B3294BDFED2D0A203330
:1050E000B7EE001A62B1DFED2B1A012A01D0022AB5
:1050F0003CD002EE101AF8EE422A81EEA22A17E006
:10510000226892060CD52268C2F3C102D04001EE9B
:10511000900AF8EE612A01EE901AF8EE611A05E0A5
:1051200001EE901ADFED1C2AF8EE611A82EEA12A38
:105130001868C0F3080001EE900A1868F8EE611ACA
:1051400040EE201A31EE810A22EE000AC0F346201A
:10515000401C00E011E000EE900AF8EE600A80EEDC
:10516000201ABCEEC10A10EE100A30BD01EE901AF2
:10517000DFED0A2AF8EE611AD8E7002030BD000002
:10518000104402580090D0030044025840787D013A
:10519000000000390024744A0024744C20BCBE4B2B
:1051A0002DE9F05F04007DD02078DFF8F8A3FE4EF3
:1051B000FE4DC00747D0DAF80000316800F0380033
:1051C000102815D0182803D101F0030002280FD0B1
:1051D0006068B0F5803F12D010B1B0F5A02F18D0A4
:1051E000286820F480302860286820F4802009E0B6
:1051F0002868800327D560680028D4D023E0286879
:1052000040F480302860606888B1FDF78FFF074662
:1052100009E0286840F480202860F0E7FDF786FF69
:10522000C01B64287ED828688003F7D50BE0FDF703
:105230007DFF074604E0FDF779FFC01B6428F1D825
:1052400028688003F7D4207841F20309D84F8007FB
:1052500052D5DAF80000316810F038000ED0182866
:1052600001D188070AD0E068A0B3296821F01901AC
:1052700001432960FDF75AFF80461AE0286840077D
:1052800002D5E06800288ED0FDF74AFF48451AD8BD
:105290002069402811D0396821F47C3141EA00307E
:1052A000386029E0C2E0FDF741FFA0EB08000228CA
:1052B000B8D828684007F6D5E6E7386820F47C308F
:1052C00040F40030ECE73868217C20F0FE4040EAF2
:1052D0000160E5E7FFE7286820F001002860FDF79E
:1052E00025FF804605E0FDF721FFA0EB080002281E
:1052F00098D828684007F6D42078C0065CD5DAF83C
:105300000000316800F03800DFF898B20828ABF1EF
:10531000040B12D0182803D101F0030001280CD08F
:10532000E06900E0E2E00028286836D040F0800024
:105330002860FDF7FBFE804621E02868C00521D5E6
:10534000E069802872D11DE0206A20281FD03968CA
:1053500021F0F84141EA806038602DE0DBF8001070
:1053600094F8202021F07C5141EA0261CBF8001032
:1053700022E0FDF7DBFEA0EB0800022898D82868A1
:10538000C005F6D5FDF7CCFE4845E7D8DCE7386820
:1053900020F0F84040F08040DEE720F080002860F8
:1053A000FDF7C4FE074604E0FDF7C0FEC01B02285F
:1053B0009ED82868C005F7D42078000728D57A49F8
:1053C00060694C31002888460846096810D041F0D1
:1053D00001010160FDF7AAFE074604E0FDF7A6FE05
:1053E000C01B022884D8D8F800008007F6D50FE04B
:1053F00021F001010160FDF799FE074604E0FDF789
:1054000095FEC01B022871D8D8F800008007F6D49A
:105410002078800623D5A0690028286810D040F4A1
:1054200080502860FDF782FE074605E02FE1FDF77A
:105430007DFEC01B022859D828688004F7D50EE0ED
:1054400020F480502860FDF771FE074604E0FDF768
:105450006DFEC01B022849D828688004F7D4207844
:1054600040074DD5DFF84C81D8F8001041F4807129
:10547000C8F80010FDF75AFE074604E0FDF756FE97
:10548000C01B642832D8D8F80000C005F6D5464FB6
:10549000A068483701280AD008B1052813D0386819
:1054A00020F001003860386820F0040002E038681D
:1054B00040F001003860A06841F2883990B1FDF7F2
:1054C00035FE80460AE0386840F004003860EEE7B8
:1054D000FDF72CFEA0EB0801494507D83868800786
:1054E000F6D50DE0FDF722FE804606E084E0FDF7EC
:1054F0001DFEA0EB080149457ED838688007F6D428
:10550000616AE1B3DAF80000DFF89C80C0F3C20002
:10551000032808F1080870D02868022920F080705C
:10552000286003D0FDF702FE044685E0FDF7FEFD8E
:10553000074604E0FDF7FAFDC01B022879D8286869
:105540008001F7D4306840F2F3318843E16A40EAE1
:105550000110A16A0843306094F834004FF4FE0251
:10556000218E4002491EA0F5007080B2C1F30801EF
:105570000843218F491E02EA0141084300E088E008
:1055800094F83C101202491E02EA01610843C8F86F
:1055900000000548001D016821F001010160024979
:1055A0000C3109E0104402582844025800440258C3
:1055B00004440258004802580A684FF6F8739A43A8
:1055C000A36C42EAC3020A600168226C21F00C015C
:1055D000114301600168626C21F002011143016016
:1055E000016841F480310160016841F400310160DB
:1055F000016841F4802101E01BE021E001600168C5
:1056000041F001010160286840F080702860FDF7DA
:105610008DFD044604E0FDF789FD001B022808D833
:1056200028688001F7D534E0FDF780FD001B0228D3
:1056300002D90320BDE8F09F28688001F4D428E057
:105640003268D8F80000012921D0A36A02F00301D2
:1056500099421CD1E16AC2F30512914217D1216B24
:10566000C0F30802491E8A4211D1616BC0F3462281
:10567000491E91420BD1A16BC0F30642491E9142D3
:1056800005D1E16BC0F30660491E814201D00120C3
:10569000D0E70020CEE770477047704770470000A2
:1056A0002DE9FE4F04460D460026032084F8340001
:1056B000E06B03285AD0B5F5004F57D00027B5F559
:1056C000804F4FF400684FF0806904D005B3A06BA1
:1056D00040F000603FE0009700210197206803F050
:1056E0003BFC80011CD46946204603F08DFC70BB56
:1056F000019840032DD5B4F848000104206803F058
:10570000CFF820BB206802211DE0A06B384322E0C7
:10571000009700210197206803F01EFC800101D54D
:105720004746F2E76946204603F06EFC78B90198D7
:10573000C0030ED5B4F848000104206803F0B0F8A7
:1057400028B92068002103F0F2F80028DDD00746D0
:10575000DBE74F46D9E7A063A06B4FF4007BDFF88F
:10576000BCA038B12168C1F838A044E0A06B40F07B
:105770008050F0E74FF48030FEF75EFD98B3284F7D
:105780002B46D4E90451B0FBF7FCD4E901928C45D7
:1057900011D9D4F85CC0DC450DD0BCF5807F13D0A6
:1057A0004FEA670C01B34FEA4108B0FBF8F8E04557
:1057B00001D9B0FBF7F1A0690095CDE9011020688F
:1057C000494603F0CDFB17E0DFF858C031B14FEA8E
:1057D0004108B0FBF8F8B84502D8ECE7B842EAD97E
:1057E000B0FBFCF1E7E702E06045E2D8E3E7A06B3D
:1057F00040F00060A06301262068594603F07FF85E
:1058000030B12268C2F838A0A16B0143A163012620
:10581000012084F834003046BDE8FE8FFF0FE01F02
:1058200080F0FA0200E1F50570477047026F120E32
:105830000A70026F120A4A8090F87020436F1206B5
:1058400042EA13224A6090F874200A72826F120EA4
:105850004A72826FC36F120242EA1362CA60C26F59
:10586000C2F303520A74C26FC2F30B224A8290F849
:105870007C00C0F346000875012048750020704781
:10588000F0B5026E920F0A70026EC2F383624A7024
:10589000026EC2F301628A70026E120CCA70B0F816
:1058A0006020120A0A7190F860204A71426E120D4F
:1058B000CA80426EC2F303420A72B0F86420C2F397
:1058C000C0324A72B0F86420C2F380328A72B0F8F3
:1058D0006420C2F34032CA72B0F86420C2F30032CE
:1058E0000A7300264E73C36B01244FF4007563B135
:1058F000012B3AD0026850499163816B41F080518D
:10590000816380F834400120F0BDB0F86420836EDC
:105910009205120D42EA93720A61826EC2F3C2626C
:105920000A75826EC2F302624A75826EC2F34252F7
:105930008A75826EC2F38242CA75826EC2F3C23227
:105940000A760B695B1CC3640A7E02F00702921C94
:105950009340C3640A7A02F00F0704FA07F2026563
:10596000520A5343C0E915350EE090F86420836E67
:105970009206920A42EA13420A610A69521C930291
:10598000C364C0E914538565B0F86820C2F380325F
:105990004A76B0F86820C2F3C6128A7690F868207A
:1059A00002F07F02CA76C26ED20F0A77C26EC2F3CD
:1059B00041724A77C26EC2F382628A77C26EC2F3C4
:1059C0008352CA77C26EC2F3405281F8202081F818
:1059D0002160C26EC2F3004281F82220B0F86C2030
:1059E000C2F3C03281F82320B0F86C20C2F38032B9
:1059F00081F82420B0F86C20C2F3403281F82520D1
:105A0000B0F86C20C2F3003281F82620B0F86C2088
:105A1000C2F3812281F82720B0F86C20C2F3012262
:105A200081F8282090F86C00C0F3460081F8290026
:105A300081F82A400020F0BDFF0FE01FC26B0A6012
:105A4000026C4A60426C8A60826CCA60C26C0A61F5
:105A5000026D4A61426D8A61806DC86100207047A5
:105A600038B5002504460095B0F8480001042068C8
:105A700003F048F828B92068002103F06DFA00907F
:105A8000284610B1A16B0143A1630098C0F34320E5
:105A900038BD00002DE9F04190B00C4600260546C7
:105AA000694603F02DFC2A4F4FF0010840B12968E8
:105AB0008F63A96B0143A96385F83480012636E022
:105AC0000098C0F3811020700098C0F340106070FF
:105AD00000994FF47F40009A00EA112141EA1261D7
