:020000040800F2
:10000000F0E40324AD020008E5680008B30300082B
:10001000B3030008050C0008C988000800000000B0
:10002000000000000000000000000000C57700088C
:100030005D10000800000000FF020008C7770008FC
:10004000C7020008C7020008C7020008C70200086C
:10005000C7020008C70200085F100008C7020008B6
:10006000C7020008C7020008C7020008090C000800
:10007000C7020008C7020008C7020008C70200083C
:10008000C7020008C7020008C7020008C70200082C
:10009000C7020008C7020008C7020008C70200081C
:1000A000C7020008C7020008C7020008C70200080C
:1000B00065790008C7020008C7020008C7020008E7
:1000C000C7020008C7020008C7020008C7020008EC
:1000D000C7020008C7020008C7020008C7020008DC
:1000E000C7020008C702000800000000C70200089D
:1000F000C7020008C7020008C7020008C7020008BC
:10010000C7020008C7020008C7020008C7020008AB
:10011000C7020008C7020008C7020008C70200089B
:10012000C7020008C7020008C7020008C70200088B
:10013000C7020008C7020008C7020008C70200087B
:1001400000000000000000000000000000000000AF
:10015000C7020008C7020008C7020008C70200085B
:10016000C7020008C7020008C7020008C70200084B
:10017000C7020008C7020008C7020008000000000C
:10018000C7020008C7020008C7020008817E0008F5
:10019000C7020008C7020008C7020008C70200081B
:1001A000C7020008C7020008C7020008C70200080B
:1001B000C7020008C7020008C7020008C7020008FB
:1001C000C7020008C7020008C7020008C7020008EB
:1001D000C7020008C7020008C7020008C7020008DB
:1001E000C7020008C7020008C7020008C7020008CB
:1001F000C7020008C7020008C7020008C7020008BB
:10020000C7020008C7020008C7020008C7020008AA
:10021000C7020008C7020008C7020008C70200089A
:10022000C7020008C7020008C7020008000000005B
:10023000116B0008C702000800000000C702000898
:10024000C7020008C7020008C7020008C70200086A
:10025000C7020008C7020008C7020008C70200085A
:10026000C7020008C7020008C7020008C70200084A
:10027000C7020008C7020008C7020008000000000B
:10028000C7020008C7020008C702000800000000FB
:1002900000000000C7020008DFF80CD000F038FBB7
:1002A00000480047690A0008F0E403240648804734
:1002B00006480047FEE7FEE7FEE7FEE7FEE7FEE74B
:1002C000FEE7FEE7FEE7FEE78178000899020008F6
:1002D000EFF3108072B6704780F310887047434A7E
:1002E0001368012B04D04FF001031360404A1060E3
:1002F000404A116040484FF0805101607047EFF371
:10030000108272B63948016851B34FF000010160A4
:100310003748016891B1EFF309811EF0100F08BF53
:1003200021ED108B21E9F00F4FF000041EF0100FAB
:1003300008BF012441F8044D006801602D49096897
:10034000096808C9B1E8F00F002B18BFB1EC108B99
:1003500081F309884EF0100E002B18BF2EF0100EFE
:1003600082F310884EF0040E704722490860EFF3C4
:10037000148222F0040282F314881D494FF0000019
:1003800008601A494FF0010008601C484FF47F01D3
:10039000D0F8002041EA0201016017484FF0805177
:1003A000016017480068006880F3088861B662B68B
:1003B00070471EF0040F0CBFEFF30880EFF30980C5
:1003C00020E9F00F40F804ED40F804ED1EF0040FB2
:1003D0000CBF80F3088880F3098800B50DF01AF986
:1003E0005DF804EB4EF0040E704700007890022494
:1003F000709002247490022404ED00E020ED00E0EF
:1004000008ED00E02DE9F05F0546002092469B468E
:1004100088460646814640241BE02846414647461A
:10042000224600F0ADF853465A46C01A914110D307
:1004300011461846224600F094F82D1A67EB010881
:100440004F4622460120002100F08BF817EB0009EF
:100450004E41201EA4F10104DFDC484631462A4605
:100460004346BDE8F09F40EA01039B0703D009E043
:1004700008C9121F08C0042AFAD203E011F8013B90
:1004800000F8013B521EF9D27047D2B201E000F8E9
:10049000012B491EFBD270470022F6E710B5134628
:1004A0000A4604461946FFF7F0FF204610BD421EDB
:1004B00012F8013F002BFBD111F8013B02F8013B80
:1004C000002BF9D1704710B5044604E00B7800F812
:1004D000013B03B1491C521EF8D2204610BD421CFC
:1004E00010F8011B0029FBD1801A704730B5044673
:1004F0000020034600E05B1C934203D2E05CCD5C2D
:10050000401BF8D030BD034611F8012B00F8012B39
:10051000002AF9D11846704730B505460020034639
:1005200000E05B1C934205D2EC5CC85C201A01D150
:10053000002CF6D130BD30B50B46014600202022FC
:10054000012409E021FA02F59D4205D303FA02F5E0
:10055000491B04FA02F52844151EA2F10102F1DC40
:1005600030BD202A04DB203A00FA02F10020704757
:100570009140C2F1200320FA03F3194390407047E1
:10058000202A04DB203A21FA02F00021704721FAE8
:1005900002F3D040C2F1200291400843194670474F
:1005A0002DE9FE4F804681EA0300C00F0C46009003
:1005B00021F0004123F00045B8EB0200A94105D22B
:1005C0004046214690461C460B46024623F000401A
:1005D000104347D0270DC7F30A00C3F30A51029016
:1005E000401A019040286BDAC3F3130040F4801BDB
:1005F0000098924620B10023D2EB030A63EB0B0B69
:1006000001985946C0F140025046FFF7AAFF06463E
:100610000D4650465946019A00F08CF910EB08003F
:100620006141002487EA115284EAE7731A4340D0FB
:10063000009A62B3019A012A4FEA075215DC001BA7
:1006400061EB02014FF0004202EA0752CDE900429D
:10065000001C41F5801132462B4600F08CF903B0A6
:10066000BDE8F08F40462146F9E7001B61EB02012F
:10067000001C41F5801300185B412018A2F50017FB
:1006800047EB030140EAD570B6196D4111E06D08E2
:100690004FEA360645EAC0754FEA0752001B61EB88
:1006A0000201001C41F5801149084FEA3000001991
:1006B000514132462B4603B0BDE8F04F00F04CB933
:1006C0000098012240000023D0EB020263EBE073AC
:1006D000009821464FEAE074B8EB000061EB04019A
:1006E000E9E783F000435BE781F0004158E72DE93B
:1006F000FE4F81EA030404F0004421F0004100941D
:100700004FF0000B23F0004350EA01045ED052EAA0
:1007100003045BD0C3F30A54C1F30A552C44A4F27A
:10072000F3340194A0FB0254C1F3130141F480118E
:10073000C3F3130343F4801301FB024400FB034E95
:10074000840A970A44EA815447EA8357A4FB07685E
:1007500002958D0A05FB07854FEA932C04FB0C5488
:100760002705029D4FEA065847EA1637B5EB0805FC
:100770006EEB070C870E920E47EA811742EA83124E
:10078000A7FB0201B6EB0B0164EB00042B0D43EA5F
:100790000C335E1844EB1C50DA465146E7FB02016D
:1007A000C5F313044FEA0B3343EA14534FEA043200
:1007B000019C43EA0603A4F10C040294009CCDE9D9
:1007C00000B400F0D8F803B0BDE8F08F0020014677
:1007D000F9E72DE9F04D81EA030404F0004B21F024
:1007E000004514464FF0000A23F0004150EA05028C
:1007F00020D054EA01021DD0C5F30A570246C5F3C2
:100800001303C1F31300C1F30A5640F4801543F4F7
:100810008013A7EB0608101BD64608F2FD3873EBD1
:10082000050002D308F1010801E092185B41B8F11C
:10083000000F03DA00200146BDE8F08D00204FF4E0
:100840008011064684460EE0171B73EB050705D39F
:10085000121B63EB050306434CEA010C49084FEAFF
:10086000300092185B4150EA0107EDD152EA0300D3
:1008700012D082EA040083EA0501084305D0101B68
:10088000AB4106D20122002306E000224FF00043D4
:1008900002E06FF0010253101AEB06004CEB085116
:1008A00010EB0A0041EB0B01BDE8F04D00F054B82D
:1008B000C1F30A52C1F3130140F2FF3341F4801136
:1008C0009A4202DA00200146704740F233439A42CE
:1008D000A2F2334202DC5242FFF752BEFFF741BEA2
:1008E00030B5041E71F1000404DB4FF000444042B7
:1008F00064EB0101141E73F1000405DB1C464FF08C
:100900000043524263EB0403994208BF904230BD5A
:10091000064C074D06E0E06840F0010394E807004C
:1009200098471034AC42F6D3FFF7BAFC18BA030864
:1009300038BA0308202A06DBCB17203A41FA02F026
:1009400043EAE07306E041FA02F3D040C2F120022C
:10095000914008431946704710B5141E73F1000406
:1009600008DA401C41F1000192185B411A4301D1A1
:1009700020F0010010BD2DE9F04D92469B4611B1CB
:10098000B1FA81F202E0B0FA80F220329046FFF72D
:10099000E8FD04460F4640EA0A0041EA0B015346CF
:1009A0005A46084313D0114653EA010019D0C8F142
:1009B00040025046FFF7E4FD05460E4650465946B4
:1009C0004246FFF7CEFD084305D0012004E0204653
:1009D0003946BDE8F08D0020054346EAE0762C4319
:1009E00037430A986305E40AA0EB08000022FD0AD9
:1009F00044EA47540A3002D500200146E9E70105E0
:100A000010196941DDE9084500196941BDE8F04D5B
:100A1000A2E770B58C1810F8015B15F0070301D13F
:100A200010F8013B2A1106D110F8012B03E010F851
:100A3000016B01F8016B5B1EF9D12B0705D4002374
:100A4000521E0DD401F8013BFAE710F8013BCB1A16
:100A5000921C03E013F8015B01F8015B521EF9D50B
:100A6000A142D8D3002070BD10B50EF051FC00207B
:100A700010BD00000649012010B5087005480DF0B2
:100A800089FBBDE810400448082102F078BA000054
:100A900000900224B891022400100258024900205C
:100AA000087002480DF076BB00900224B891022431
:100AB000002000B500F020F8002000F013F85DF8E9
:100AC00004EB00F001B8000005484FF4001202608A
:100AD0002021016001600160016002607047000038
:100AE00018080258034910B11020086070474FF4ED
:100AF0008010FAE718240258F0B50424104A11496E
:100B0000082623045D00072817D2DFE800F016044A
:100B100006080B0E1200136008E013600AE0136071
:100B20000C6004E014600B6005E014600B600E6064
:100B3000F0BD14600C600D60F0BD1360F3E70000C1
:100B4000180402581824025807F086B907F070B943
:100B50000146014804F070B958BD0224044810B59C
:100B600004F07CF9042801D0012010BD002010BD44
:100B700058BD022410B500F015F8012801D002205C
:100B800010BD074804F002FB040006D104484FF4EE
:100B9000804103F083FF00B10124204610BD000016
:100BA00058BD022408B501208DF800009DF8000012
:100BB00008BD000013460A4610B50024014603484C
:100BC00004F01CFC00B10124204610BD58BD0224D5
:100BD00001490120886070473490022413460A4678
:100BE00010B500240146034804F07AFC00B101244A
:100BF000204610BD58BD02240149012048607047BD
:100C000034900224FEE70000014801F08DB9000095
:100C100088BF032410B52A4A016891423AD0284A75
:100C20001832914236D0264A3032914232D0244A8C
:100C3000483291422ED0224A603291422AD0204A34
:100C40007832914226D01E4A9032914222D01C4ADC
:100C5000A83291421ED01B4A91421BD0194A183229
:100C6000914217D0174A3032914213D0154A483278
:100C700091420FD0134A603291420BD0114A783220
:100C8000914207D00F4A9032914203D00D4AA832C8
:100C9000914211D1CAB20C4C1823103AB2FBF3F2B4
:100CA0006FF3090102F00703032AE35CC36500D96F
:100CB000091D8165084610BD21F0FF01F9E700001C
:100CC00010000240100402408C02010810B50168B7
:100CD0000123224CCAB2A1421BD0204C1434A142A1
:100CE00017D01E4C2834A14213D01C4C3C34A142D6
:100CF0000FD01A4C5034A1420BD0184C6434A1428E
:100D000007D0164C7834A14203D0144C8C34A14245
:100D10000FD11421083AB2FBF1F1114A02EB810222
:100D200002660F4A01F01F0180328B40C0E919238F
:100D300010BD1824103AB2FBF4F20A4C2144A82941
:100D400000D80832084901EB82010166064980316A
:100D5000416602F01F018B40836610BD08540258A3
:100D600000580258F0FBFDBF0008024010B50279A0
:100D7000531E072B30D8194C0168A1421BD0174CC9
:100D80001434A14217D0154C2834A14213D0134C6F
:100D90003C34A1420FD0114C5034A1420BD00F4C27
:100DA0006434A14207D00D4C7834A14203D00B4CDF
:100DB0008C34A14206D10A4901EB8201C16608497F
:100DC000443105E0074901EB8201C1660549443120
:100DD000016701219940416710BD00000854025885
:100DE000FC580258FC080240014610B500208B69EF
:100DF0004FF0C0748A6A53B1B3F5005F15D072B179
:100E0000012A0CD0022A0AD0032A09D104E01AB11F
:100E1000012A06D0022A03D1C96AC90100D50120DE
:100E200010BDC96AA142FAD010BD002AF7D0012A2C
:100E3000F2D0022AF3D0032AF3D010BD2DE9F04FEF
:100E4000834E834FDFF808C24836DFF80492DFF89C
:100E500000A20CF1180CDFF8F8B109F13009DFF845
:100E6000F0E10AF1600A04680BF1780B856D0EF170
:100E7000900EBC426DD064456BD04C4569D0B442F5
:100E800067D0544565D05C4563D0744561D0DFF8C8
:100E9000C08108F1A80844455BD0DFF8B88144451B
:100EA00057D0DFF8B08108F11808444551D0DFF879
:100EB000A48108F1300844454BD0DFF8988108F14F
:100EC0004808444545D0DFF88C8108F16008444566
:100ED0003FD0DFF8808108F17808444539D0DFF849
:100EE000748108F19008444533D0DFF8688108F137
:100EF000A80844452DD0DFF86081444529D0DFF8AB
:100F0000588108F11408444523D0DFF84C8108F1DA
:100F1000280844451DD0DFF8408108F13C084445CD
:100F200017D0DFF8348108F15008444511D0DFF8BC
:100F3000288108F1640844450BD0DFF81C8108F1D2
:100F40007808444505D0DFF8108108F18C08444545
:100F500009D1D0E91948C4F80480C46E1CB1D0E9A5
:100F60001C48C4F804800468BC422ED064452CD0D0
:100F70004C452AD0B44228D0544526D05C4524D0D4
:100F8000744522D0324EA836B4421ED0314EB442FF
:100F90001BD0304E1836B44217D02E4E3036B442E5
:100FA00013D02C4E4836B4420FD02A4E6036B4428D
:100FB0000BD0284E7836B44207D0264E9036B44235
:100FC00003D0244EA836B44215D190F85C4004F00A
:100FD0001F063F24B440AC600468256825F48025D2
:100FE00025602EE09A600068C160BDE8F08F9960CE
:100FF0000068C260F9E7184EB4421BD0164E143692
:10100000B44217D0144E2836B44213D0124E3C3698
:10101000B4420FD0104E5036B4420BD00E4E643650
:10102000B44207D00C4E7836B44203D00A4E8C3608
:10103000B442DAD190F85C4004F01F060124B440B9
:101040006C60046863608368402B0368CFD1C9E794
:10105000100002401004024008540258704701205A
:1010600001F093BE70470022AFF300800E4B30B505
:1010700005465C7A0120002C14D1587A1C54587A09
:1010800003EB800045605D7A03F108002A54587A2A
:10109000421C5A72303008703A2048702F208870F5
:1010A0000020CC7030BD000020C0032430B5B3F563
:1010B000804F05D06FF0704140F82210002030BD05
:1010C0008C690B688D6823434C688989240144EA44
:1010D0000524234343EA014150F82230014C2340C8
:1010E0001943E9E70000F0CF30B50A6850F8223024
:1010F00023F0010340F822308B68082B28D000220F
:101100004C681B4D1C43CB6813430A691C438B6B13
:1011100014434A6914438A691443CA6914430A6A26
:1011200014434A6A14438A6A1443CA6A14430A6B12
:1011300022434C6B14430A68234350F82240AC43CB
:101140001C4340F822400A6BB2F5801F02D007E032
:101150004022D5E70A684AB1026842F48012026070
:101160000A681AB10268496B0A430260002030BD68
:101170007FFB3F0070B5D1E900348D8900EB82021E
:1011800043EA04138C68240244EA05440D8A23438D
:10119000104C04EB05552B430D7D660106EB0565F0
:1011A0002B438D692B43556805F040452B43536015
:1011B0000268D2020BD54268098A22F4700204EB5D
:1011C00001511143426822F470020A434260002038
:1011D00070BD00000000F0FF00B52DED028B83B064
:1011E00001A96A461EA009F0C5F81E49087020B181
:1011F000002003B0BDEC028B00BD0098B6EE001BD2
:10120000019AC1694089891E4143504300EE101A7A
:10121000174AB8EE400B20EE012B9FED130B22EE88
:10122000002BB7EEC23B02EE100AB8EE422B22EEC4
:10123000011B21EE000BB7EEC00BFCEEC30A10EE53
:10124000901AC2F80B10BCEEC08A18EE100AC2F851
:101250000F00024607A007F039FB18EE100AC8E796
:101260000000000040900224000000000000503FF9
:101270009C910224534420546F74616C20737061FC
:1012800063653A25644D4220417661696C61626C08
:10129000652073706163653A25644D42200000004B
:1012A0002DE9F04F594889B090E8E20058A08846EF
:1012B00007F00CFB08F050FA5E4801225CA109F02F
:1012C0006DFA5D4C207028B101465CA007F0FEFA73
:1012D00001217DE05EA007F0F9FA08F03DFA08F080
:1012E0003BFA654801225FA107F000FB62490A2230
:1012F000A1F5167009F07EFA4F4C207008F02CFA18
:10130000217819B15DA007F0E1FA02E061A007F0D1
:10131000DDFA00243814069038B207900FFA86FAE6
:101320002FB24FEA264B4FEA25490FFA88F54FEACC
:101330002846DFF87881DDE9060133462A46CDE903
:10134000041004EBC40000EB441101EB08008DE82D
:10135000800E57A107F0CAFA641CB4F5805FEADB7F
:101360000DF04CFC5B4D0024334E4FF424380746FF
:10137000594B4E494246574809F085FC3070554854
:10138000D5E90E2309F082F8641C0A2CF0D308F08A
:10139000E3F90DF033FCC01B0A21B0FBF1F400EEC1
:1013A000104AB8EE400B9FED4D1B4EA0224681EE39
:1013B000002BB7EEC20BB7EEC00A8DED000B3178F3
:1013C00007F084FA322C09D94FA007F07FFA0321E5
:1013D0005048017109B00120BDE8F08F4EA007F020
:1013E00075FA3C4808F0B2FF307020B101464DA0BC
:1013F00007F06CFA02E050A007F068FA09B0012289
:101400000020BDE8F04F0AA109F0C8B97C0201082C
:101410000D0A202A2A2A2A2A2A2046617446732085
:1014200054657374202A2A2A2A2A2A0D0A0D0A00D2
:101430000000000088B80224409002246D6F756E91
:1014400074206572726F72203A202564200D0A00A4
:101450006D6F756E74207375636573732121212020
:101460000D0A000053544D3332637562655F256485
:101470002E7478740000000018BD02246F70656E31
:101480002066696C65206572726F72203A2025644F
:101490000D0A00006F70656E2066696C65207375BB
:1014A00063657373212121200D0A000000000024D0
:1014B00025346420253464202534642025346420B8
:1014C0002534642025346420253464202534640DBB
:1014D0000A000000C0BA02240C90022400000000A0
:1014E0000005644072657453443A25642C74696D38
:1014F000653A25646D732C73706565643A252E32E8
:10150000664D422F730D0A0063617264206572722A
:101510000D0A00009C91022463617264206F6B0DC0
:101520000A000000636C6F7365206572726F722031
:101530003A2025640D0A0000636C6F736520737593
:1015400063657373212121200D0A000000B59BB053
:10155000364814A903F068FB344809A903F08EFB50
:101560003248694603F068FC31480521314A9FED55
:10157000321AC162B2FBF1F1026B806B5143B1FBD5
:10158000F0F000EE100A2D48B8EE400A0068C0EEF8
:10159000010A400000EE100A29A0B8EE400A80EED1
:1015A000801AB7EEC10A53EC102B07F08FF900999F
:1015B00028A007F08BF99DED040A9DED051A2EA0D9
:1015C000B8EE400BB8EE411B20EE011B9FED280B3F
:1015D00021EE001B21EE001B21EE000B53EC102B23
:1015E00007F074F901992CA007F070F9029931A065
:1015F00007F06CF9039935A007F068F904993AA04F
:1016000007F064F905993FA007F060F9069944A036
:1016100007F05CF9079949A007F058F99DF85010B8
:101620004EA007F053F91BB000BD000058BD0224C6
:101630005091022440787D010024744910900224C6
:1016400053444361726420434C4B3A25664D487ABB
:101650000D0A0000534443617264496E666F2E4365
:10166000617264547970653A25640D0A00000000C7
:10167000000000000000503F53444361726443493E
:10168000442E4361726443617061636974793A25E1
:101690002E326647420D0A00534443617264496E1C
:1016A000666F2E4361726456657273696F6E3A2578
:1016B000640D0A00534443617264496E666F2E43A1
:1016C0006C6173733A25640D0A0000005344436152
:1016D0007264496E666F2E52656C43617264416438
:1016E000643A25640D0A0000534443617264496EF4
:1016F000666F2E426C6F636B4E62723A25640D0A00
:1017000000000000534443617264496E666F2E42CC
:101710006C6F636B53697A653A25640D0A000000AB
:10172000534443617264496E666F2E4C6F67426C1E
:101730006F636B4E62723A25640D0A005344436135
:101740007264496E666F2E4C6F67426C6F636B53A9
:10175000697A653A25640D0A00000000534443612C
:1017600072644349442E4D616E756661637475728F
:10177000657249443A25640D0A0000002DE9F84FCE
:10178000044601F00FFC002C009008D094F83500BE
:10179000022805D080206065002084F83400EBE04A
:1017A000CC4ECC4FCB491836DFF828833037DFF8E2
:1017B0002493DFF820A308F14808DFF818B309F1F3
:1017C000600920680AF1780A0BF1900B88422ED04C
:1017D000B0422CD0B8422AD0404528D0484526D027
:1017E000504524D0584522D0BA4AA83290421ED043
:1017F000B94A90421BD0B84A1832904217D0B64A24
:101800003032904213D0B44A483290420FD0B24A9C
:10181000603290420BD0B04A7832904207D0AE4A44
:101820009032904203D0AC4AA832904209D102686B
:1018300022F01E0202602068426922F080024261AA
:1018400003E0026822F00E02026025688D422846FD
:101850004DD0B0424BD0B84249D0404547D0484522
:1018600045D0504543D0584541D09A4AA83290427D
:101870003DD0994A90423AD0974A1832904236D099
:10188000954A3032904232D0934A483290422ED01C
:10189000914A603290422AD08F4A7832904226D0C4
:1018A0008D4A9032904222D08B4AA83290421ED06C
:1018B0008A4A90421BD0894A1432904217D0874AF4
:1018C0002832904213D0854A3C3290420FD0834A4E
:1018D000503290420BD0814A6432904207D07F4A06
:1018E0007832904203D07D4A8C32954204D1206EEA
:1018F000026822F48072026076492068884228D00B
:10190000B04226D0B84224D0404522D0484520D00D
:1019100050451ED058451CD06E49A831884218D079
:101920006D49884215D06C491831884211D06A49F6
:10193000303188420DD068494831884209D0664923
:101940006031884205D064497831884201D06249CB
:101950009031016821F00101016010E001F022FBEB
:101960000099401A05280AD920206065002084F8D3
:101970003400032084F835000120BDE8F88F286882
:10198000C007EBD1534A0121206890422ED0B042CB
:101990002CD0B8422AD0404528D0484526D05045C2
:1019A00024D0584522D04B4BA83398421ED04A4BE6
:1019B00098421BD0484B1833984217D0464B3033CF
:1019C000984213D0444B483398420FD0424B603377
:1019D00098420BD0404B7833984207D03E4B90331F
:1019E000984203D03C4BA833984208D194F85C301D
:1019F000A06D03F01F053F23AB40836007E094F820
:101A00005C30A06D03F01F0301FA03F3436020680C
:101A100090424DD0B0424BD0B84249D0404547D01B
:101A2000484545D0504543D0584541D0294AA83271
:101A300090423DD0284A90423AD0274A18329042EC
:101A400036D0254A3032904232D0234A4832904232
:101A50002ED0214A603290422AD01F4A78329042DA
:101A600026D01D4A9032904222D01B4AA832904282
:101A70001ED01A4A90421BD0184A1432904217D0F6
:101A8000164A2832904213D0144A3C3290420FD06A
:101A9000124A503290420BD0104A6432904207D022
:101AA0000E4A7832904203D00C4A8C3290420BD1CD
:101AB000D4E919024260E06E30B1026822F480720B
:101AC0000260D4E91C024260002084F8340084F8EB
:101AD000351052E71000024010040240085402582A
:101AE0002DE9F05F28B190F83510022904D080214B
:101AF00041650120BDE8F09F8F4A8F4B8E4C183214
:101B00008D4D48338C4E60348B4F7835DFF828820A
:101B10009036DFF82492A837DFF820E2DFF81CA225
:101B200009F13009DFF814C20EF1780E01680AF1EC
:101B3000900ADFF808B20CF1A80C41452DD0914273
:101B40002BD0494529D0994227D0A14225D0A9427E
:101B500023D0B14221D0B9421FD059451DD0DFF862
:101B6000DC8108F11808414517D0DFF8D08108F171
:101B70003008414511D0DFF8C48108F148084145DB
:101B80000BD0DFF8B88108F16008414505D07145F8
:101B900003D0514501D0614529D14FF0040880F8A8
:101BA0003580654881421DD091421BD0494519D0EE
:101BB000994217D0A14215D0A94213D0B14211D0F9
:101BC000B9420FD059450DD05C481830814209D038
:101BD0005A483030814205D058484830814201D0BF
:101BE00056486030086820F001000860A2E0D1F893
:101BF000008028F00E08C1F80080DFF83C81016801
:101C0000414525D0914223D0494521D099421FD04A
:101C1000A1421DD0A9421BD0B14219D0B94217D060
:101C2000594515D0DFF8148108F1180841450FD047
:101C3000DFF8088108F13008414509D0DFF8FC8061
:101C400008F14808414503D0DFF8F08008F160084A
:101C5000D1F8008028F00108C1F80080DFF8D880B2
:101C60000168414544D0914242D0494540D0994213
:101C70003ED0A1423CD0A9423AD0B14238D0B9427C
:101C800036D0594534D02D4A1832914230D02B4AA3
:101C9000303291422CD0294A4832914228D0274AEA
:101CA0006032914224D0714522D0514520D0614507
:101CB0001ED0234A91421BD0214A1432914217D0A0
:101CC0001F4A2832914213D01D4A3C3291420FD014
:101CD0001B4A503291420BD0194A6432914207D0CC
:101CE000174A7832914203D0154A8C32914218D16A
:101CF000016E0A6822F480720A6090F85C20816D9F
:101D000002F01F0301229A404A60D0E919124A608A
:101D1000C16E31B10A6822F480720A60D0E91C12E7
:101D20004A60002180F83410012180F83510016DDF
:101D300001B188470020DDE6100002401004024097
:101D4000085402582DE9F05F04007DD0734A734BAC
:101D5000724E1832714F303370494836DFF8BCC1CB
:101D60006037DFF8B881DFF8B4910CF1780CDFF858
:101D7000B0B108F19008DFF8A8E109F1A8092068DE
:101D80000BF1180BDFF898A10EF1300E884221D02C
:101D900090421FD098421DD0B0421BD0B84219D0FB
:101DA000604517D0404515D0484513D0504511D057
:101DB00058450FD070450DD0594D4835A84209D02F
:101DC000574D6035A84205D0554D7835A84201D011
:101DD000534D9035056825F0010505602068002504
:101DE000884227D0904225D0984223D0B04221D0BB
:101DF000B8421FD060451DD040451BD0484519D082
:101E0000504517D0584515D0704513D04449483136
:101E100088420FD04249603188420BD04049783126
:101E2000884207D03E499031884203D03C49A831CE
:101E3000884218D105602068456020688560206868
:101E4000C5602068056100E065E0216821204861E7
:101E50002046FEF7DFFE94F85C1001F01F023F21E0
:101E60009140816031E02F4988421BD02D491431C7
:101E7000884217D02B492831884213D029493C3158
:101E800088420FD02749503188420BD02549643110
:101E9000884207D023497831884203D021498C31C8
:101EA000884238D1056020684560206885602068D8
:101EB000C560206805612046FEF7ACFE94F85C1012
:101EC00001F01F020121914041602046FEF7FEFE15
:101ED000206E18B10560D4E9190141606068401EA8
:101EE000072807D82046FEF741FFE06E0560D4E9D9
:101EF0001C014160E56625676567E56325646564E7
:101F0000A564E5642565656584F83550002084F88E
:101F10003450BDE8F09F0120FBE7000010000240B4
:101F200010040240085402582DE9FC5F04460020CA
:101F300000904FF41651F9480068B0FBF1F00190A1
:101F4000A56D2E682A68F64FDFF8D483DFF8D0A39A
:101F5000DFF8CCB308F1180820680AF1300ADFF87E
:101F6000C4930BF1480BB84238D04146884235D073
:101F7000504533D0584531D0E949603188422DD0A1
:101F8000E7497831884229D0E5499031884225D007
:101F9000E349A831884221D048451FD0E149183192
:101FA00088421BD0DF493031884217D0DD494831A3
:101FB000884213D0DFF86CE30EF1600E70450DD04F
:101FC000D84B7833984209D0DFF858C30CF1900C05
:101FD000604503D0D349A83188427DD194F85C1084
:101FE000082301F01F0103FA01F232424CD0B8423B
:101FF00033D0404531D050452FD058452DD0C84919
:102000006031884229D0C6497831884225D0C449F8
:102010009031884221D0C249A83188421DD048451C
:102020001BD0C0491831884217D0BE493031884290
:1020300013D0BC49483188420FD0BA496031884238
:102040000BD0B8497831884207D0B64990318842E0
:1020500003D0B449A831884203D1016801F00401DA
:1020600002E0016801F0080171B1016821F004018A
:10207000016094F85C0000F01F0003FA00F2AA600F
:10208000606D40F00100606594F85C00012100F093
:102090001F008140314241D02068B84235D04045D0
:1020A00033D0504531D058452FD09D4A60329042B0
:1020B0002BD09B4A7832904227D0994A9032904256
:1020C00023D0974AA83290421FD048451DD0954A48
:1020D0001832904219D000E0B4E1924A3032904276
:1020E00013D0904A483290420FD08E4A60329042CC
:1020F0000BD08C4A7832904207D08A4A9032904274
:1021000003D0884AA83290427ED1406910F0800FF7
:1021100004D0A960606D40F00200606594F85C0036
:10212000042100F01F00814031423FD02068B842B6
:1021300033D0404531D050452FD058452DD0784A26
:102140006032904229D0764A7832904225D0744A43
:102150009032904221D0724AA83290421DD0484518
:102160001BD0704A1832904217D06E4A30329042DB
:1021700013D06C4A483290420FD06A4A6032904283
:102180000BD0684A7832904207D0664A903290422B
:1021900003D0644AA83290424FD1006810F0020F79
:1021A00004D0A960606D40F00400606594F85C00A4
:1021B000102100F01F008140314259D02068B84200
:1021C00035D0404533D0504531D058452FD0544AB2
:1021D000603290422BD0524A7832904227D0504AF7
:1021E0009032904223D04E4AA83290421FD04845A8
:1021F0001DD04C4A1832904219D04A4A303290428F
:1022000015D0484A483200E015E090420FD0454AC8
:10221000603290420BD0434A7832904207D0414A14
:102220009032904203D03F4AA832904207D10068D2
:1022300000F0080006E0006870E70068B6E7006894
:1022400000F00400A0B1A96020680168490304D52A
:102250000068000308D5A16C07E00168C90503D434
:10226000016821F008010160216C09B1204688470E
:1022700094F85C00202100F01F008140314278D0AA
:102280002068B84233D0404531D050452FD0584512
:102290002DD0234A6032904229D0214A7832904290
:1022A00025D01F4A9032904221D01D4AA832904238
:1022B0001DD048451BD01B4A1832904217D0194AEE
:1022C0003032904213D0174A483290420FD0154A0C
:1022D000603290420BD0134A7832904207D0114AB4
:1022E0009032904203D00F4AA832904203D1006846
:1022F00000F0100002E0006800F00200A0B3A96046
:1023000094F835000428206801680DD049037DD574
:102310000068000329D4616C28E000002C9002249E
:10232000100002401004024021F0160101602068F4
:10233000416921F080014161206C08B9A06C20B195
:102340002068016821F00801016094F85C0000F049
:102350001F013F208840A860002084F8340001203D
:1023600084F83500216D66E003E0E16B09B1204699
:102370008847606D00287DD0606DC0075AD004206A
:1023800084F835002068B8422BD0404529D050450C
:1023900027D0584525D0A049884222D09E491831DF
:1023A00088421ED09C49303188421AD09A4948311F
:1023B000884216D0484514D09849884211D0974990
:1023C000183188420DD095493031884209D093495F
:1023D0004831884205D091496031884201D08F4907
:1023E0007831016821F00101016021680098019AAB
:1023F000401C0090904202D80868C007F6D1002027
:1024000084F834000868C00711D000E001E0032020
:102410000EE00168C905A8D4016821F0100101602F
:10242000002084F83400012084F835009DE7012065
:1024300084F83500E16C00291CD002B02046BDE8CC
:10244000F05F0847764988421DD0754914318842AB
:1024500019D073492831884215D071493C318842DE
:1024600011D06F49503188420DD06D496431884296
:1024700009D000E086E06A497831884203D0684993
:102480008C3188427ED101684FF0040894F85C607A
:1024900006F01F0608FA06F818EA020FCDF80080C9
:1024A00047D05FEA417844D500986860080403D5B6
:1024B000C8033CD4A16CBEE7880638D42068B84273
:1024C0002DD055494839884229D0504527D0584504
:1024D00025D05149884222D04F49183188421ED018
:1024E0004D49303188421AD04B494831884216D084
:1024F000484514D04949884211D04849183188428A
:102500000DD046493031884209D0704507D09842F5
:1025100005D0604503D041499031884203D101681C
:1025200021F0080102E0016821F004010160216C42
:1025300081E74FF0020808FA06F818EA020FCDF812
:1025400000804FD05FEA81784CD50098686008041D
:1025500003D5C80344D4616C6DE7880640D4206875
:10256000B8422FD02C49483988422BD0504529D029
:10257000584527D02849884224D027491831884215
:1025800020D000E045E02449303188421AD0224969
:102590004831884216D0484514D02049884211D08D
:1025A0001E49183188420DD01C493031884209D06B
:1025B000704507D0984205D0604503D01749903147
:1025C000884203D1016821F0140102E0016821F082
:1025D0000A010160002084F83400012084F83500ED
:1025E000E16B28E70823B340134212D0090710D546
:1025F000016821F00E01016094F85C0000F01F01F9
:10260000012000FA01F169606065002184F834104E
:102610000EE7BDE8FC9F0000700002402804024065
:10262000085402582DE9F05F044600F0BBFC064652
:10263000F4B3E24F0222DFF884830025DFF87C93B5
:10264000DFF878A308F13008DFF870B309F1480922
:1026500020680AF1600A0BF1780BB84234D0D749F0
:102660001831884230D040452ED048452CD05045B6
:102670002AD0584528D0D1499031884224D0CF491A
:10268000A831884220D0CE4988421DD0CC4918318B
:10269000884219D0CA493031884215D0C8494831DA
:1026A000884211D0C649603188420DD0C44900E04B
:1026B00042E07831884207D0C1499031884203D046
:1026C000BF49A83188427CD184F8345084F8352041
:1026D000B8422CD0B9491831884228D0404526D07C
:1026E000484524D0504522D0584520D0B349903198
:1026F00088421CD0B149A831884218D0B0498842DC
:1027000015D0AF491831884211D0AD4930318842D7
:102710000DD0AB494831884209D0A949603188427F
:1027200005D0A7497831884201D0A5499031016888
:1027300021F00101016009E00120BDE8F09F00F0F7
:1027400031FC801B052801D9202015E12068006894
:10275000C007F4D1226811689A480140D4E9020305
:102760001843D4E9043633431843A3691843E36993
:102770001843236A18430843616A042903D1D4E942
:102780000B1319430843904909686FF30F01B1F126
:10279000005F0FD36168A1F12903052B08D9163B0F
:1027A000032B05D9083B012B02D94F39032901D846
:1027B00040F4801010602068406920F00701606AD2
:1027C00000E01CE0042840EA01060BD1A06A0643A1
:1027D000E06A38B12046FEF707FB18B1402060657B
:1027E0000120CBE0206846612046FEF713FA94F8FA
:1027F0005C1001F01F023F219140816056E0734957
:1028000088421BD0714B1433984217D06F4B28333A
:10281000984213D06D4B3C3398420FD06B4B5033E2
:1028200098420BD0694B6433984207D0674B78339A
:10283000984203D0654B8C3398427DD1884201D0B9
:102840006249143184F8345084F8352002686049B4
:102850000A40A168402970D080296FD00021E36828
:1028600041EAD301236941EAD301636941EAD30113
:10287000A36941EAD301E36941EAD301236A41EA4A
:102880001311114301605149206849420844142141
:10289000B0FBF1F08000E0652046FEF7BBF994F84C
:1028A0005C1001F01F020121914041602068B84294
:1028B00055D042491831884251D040454FD0484503
:1028C0004DD050454BD0584549D03C499031884275
:1028D00045D03A49A831884241D0394988423ED052
:1028E0003749183188423AD035493031884236D09C
:1028F00033494831884232D03149603188422ED044
:102900002F49783188422AD02D499031884226D0EB
:102910002B49A831884222D02C4988421FD02B490C
:10292000143188421BD029492831884217D02749C1
:102930003C31884213D002E01DE017E018E0234943
:10294000503188420BD021496431884207D01F4959
:102950007831884203D01D498C31884228D12046E5
:10296000FEF7B4F9A06880280BD00BE0102176E7C1
:102970004FF4804173E740206065032084F8350000
:10298000DAE66560216E20790860D4E919014160BA
:102990006068401E072808D82046FEF7E7F9E06E79
:1029A0000560D4E91C01416002E0E56625676567C2
:1029B0006565012084F835000020BEE61000024065
:1029C000100402403F8010FE0010005C08540258C2
:1029D0000F00FEFF002310B580B190F83440012CA9
:1029E0000ED0012480F8344090F83540012C09D0F5
:1029F0000123002180F83410184610BD012010BDBD
:102A0000022010BD0629F4D2DFE801F00305070912
:102A10000B0DC263EDE70264EBE74264E9E7826411
:102A2000E7E7C264E5E70265E3E700002DE9F84F58
:102A300004004FF00000009014D094F834000128F6
:102A400012D0012084F8340094F835500020012D74
:102A50000CD084F834004FF40060606501200090D1
:102A6000BDE8F88F0120FBE70220F9E7022584F892
:102A700035506065974D974E964F1835DFF854C224
:102A80003036DFF850824837DFF84892DFF844A24A
:102A900008F16008DFF83CB209F1780920680AF112
:102AA000900A0BF1A80B604533D0A84231D0B04258
:102AB0002FD0B8422DD040452BD0484529D0504585
:102AC00027D0584525D0DFF810C2604521D0DFF867
:102AD00008C20CF1180C60451BD0DFF8FCC10CF1EA
:102AE000300C604515D0DFF8F0C10CF1480C6045A2
:102AF0000FD0DFF8E4C10CF1600C604509D0DFF8BD
:102B0000D8C10CF1780C604503D0DFF8CCC10CF1D2
:102B1000900CD0F800C02CF0010CC0F800C020468A
:102B2000FEF78CF96B49206888422CD0A8422AD045
:102B3000B04228D0B84226D0404524D0484522D0C3
:102B4000504520D058451ED0634A90421BD0624A5F
:102B50001832904217D0604A3032904213D05E4A09
:102B6000483290420FD05C4A603290420BD05A4AB1
:102B70007832904207D0584A9032904203D0564A59
:102B8000A83290420CD1026822F01E0242F01602D6
:102B90000260206C88B12068026842F008020BE0F5
:102BA000026822F00E0242F00A020260206C20B19C
:102BB0002068026842F004020260206888424BD01C
:102BC000A84249D0B04247D0B84245D0404543D052
:102BD000484541D050453FD058453DD03E4A9042AF
:102BE0003AD03D4A1832904236D03B4A3032904279
:102BF00032D0394A483290422ED0374A6032904221
:102C00002AD0354A7832904226D0334A90329042C8
:102C100022D0314AA83290421ED0304A90421BD076
:102C20002E4A1432904217D02C4A2832904213D0A8
:102C30002A4A3C3290420FD0284A503290420BD060
:102C4000264A6432904207D0244A7832904203D018
:102C5000224A8C3290420DD1206E0268D20303D5F5
:102C6000026842F480720260E06E18B1026842F4B9
:102C7000807202602068884226D0A84224D0B042E8
:102C800022D0B84220D040451ED048451CD05045E7
:102C90001AD0584518D01049884215D00E4918311D
:102CA000884211D00C49303188420DD00A49483150
:102CB000884209D008496031884205D006497831F8
:102CC000884201D004499031016841F0010101605E
:102CD0000098C5E610000240100402400854025853
:102CE00070B5044600F05EF90546601C02D0044849
:102CF0000078044400F056F9401BA042FAD370BD9E
:102D0000209002242DE9F04186B014216846FDF799
:102D1000C3FB18480168002929D14FF00108C0F809
:102D200000801548016841F4805101600068022468
:102D30000025694600F48050059003264CF2B370DC
:102D40000C278DE8F1000D4800F02CF801AACDF811
:102D500000800B48694682E8F00000F023F84FF647
:102D6000807069468DE8F100064800F01BF806B057
:102D7000BDE8F08118900224D4440258000C025897
:102D8000001402580010025870474FF0B04110B5BF
:102D9000D1F88820024203D0C1F88800FFF7F4FF81
:102DA00010BD00002DE9F84F664C00224FF0B04EE8
:102DB0004FF0030A4FF00F0BBDE001269640334061
:102DC00070D04D68012D05D0022D03D0112D01D0FA
:102DD000122D15D1876855000AFA05FC27EA0C0761
:102DE000D1F80CC00CFA05FC4CEA070CC0F808C07E
:102DF0004568B5430E79C6F3001696402E434660EB
:102E0000C66857008D680AFA07F926EA0906BD4028
:102E10003543C5604D68022D01D0122D12D1D50861
:102E200000EB850CDCF820605507ED0E0BFA05F879
:102E300026EA0806D1F8108008FA05F848EA0608DC
:102E4000CCF8208005680E7925EA090506F003060E
:102E5000BE402E4306604D68ED006BD53A4D2E689E
:102E600046F002062E602D6822F0030606F1B046F9
:102E700005F002050095D6F808C495072F0F0BFA48
:102E800007F52CEA050C314DA84201D100252EE0B2
:102E90002F4DA84201D1012529E02E4DA84202D193
:102EA000022524E046E02C4DA84201D103251EE076
:102EB0002A4DA84201D1042519E0294DA84201D18B
:102EC000052514E0274DA84201D106250FE0264D27
:102ED000A84201D107250AE0244DA84201D10825C6
:102EE00005E0234DA84201D1092500E00A25BD4097
:102EF00045EA0C05C6F8085425684E689D43F6035C
:102F000000D51D43256065684E689D43B60300D516
:102F10001D436560DEF8005076464F689D43FF0212
:102F200000D51D43356075684F689D43BF0200D5CD
:102F30001D437560521C0B6833FA02F57FF43DAFF8
:102F4000BDE8F88F80000058F44402580000025891
:102F50000004025800080258000C025800100258E1
:102F60000014025800180258001C02580020025891
:102F7000002402580069084000D0012070474269CF
:102F800021EA02030A4043EA0241816170470AB123
:102F9000816170470904FBE701480068000C704735
:102FA0000010005C0BF02ABE10B501F05FFA0E4C69
:102FB000B0FBF4F10DA005F089FC01F011FAB0FBB3
:102FC000F4F117A005F082FC01F02CFAB0FBF4F14B
:102FD0001FA005F07BFC01F037FAB0FBF4F1BDE86F
:102FE000104028A005F072BC40420F005B48414CE5
:102FF0005F4765745F4350555F5243435F436C6F57
:10300000636B5D48414C5F5243435F537973436C3C
:103010006F636B467265713A25644D487A0D0A00FC
:103020005B48414C5F4765745F4350555F52434373
:103030005F436C6F636B5D48414C5F5243435F4835
:10304000434C4B467265713A25644D487A0D0A002F
:103050005B48414C5F4765745F4350555F52434343
:103060005F436C6F636B5D48414C5F5243435F50FD
:10307000434C4B31467265713A25644D487A0D0ACE
:10308000000000005B48414C5F4765745F4350554A
:103090005F5243435F436C6F636B5D48414C5F52CB
:1030A00043435F50434C4B32467265713A25644D41
:1030B000487A0D0A00000000032010B500F086F8E1
:1030C00001F0D4F90F4A11681268C1F303230E49C5
:1030D000CB5C03F01F03D84002F00F02895C0B4A5F
:1030E00001F01F0120FA01F1116009490860002078
:1030F00000F010F808B1012010BD00F02BF80020FE
:1031000010BD000018440258BC020108309002248F
:103110002C90022470B50D4D04462A78A2B14FF4CC
:103120007A700B49B0FBF2F00968B1FBF0F002F0E5
:1031300079FA48B9102C07D200222146501E00F01F
:1031400025F800206C6070BD012070BD2090022425
:103150002C900224054808B5016841F00201016085
:10316000006800F00200009008BD0000F44402581E
:10317000002809DB012100F01F0291404009800076
:1031800000F1E020C0F80011704700000E4BF0B4D1
:103190001B68C3F30223C3F10704042C00D90424E1
:1031A0001D1D072D01D2002300E0DB1E012606FABB
:1031B00004F56D1E0D409D409E40761E164045EA6A
:1031C0000601F0BC05F0A6BB0CED00E0064A00F0DD
:1031D000070110684FF6FF03184040EA0120034939
:1031E00008431060704700000CED00E00000FA0595
:1031F000124970B50A68D243520705D5096801F033
:103200000701814212D117E00A6822F00702024347
:103210000A60FFF7C7FE094D4FF47A760446083D71
:1032200006E0FFF7BFFE001BB04201D9012070BDD0
:103230002868C0438004F4D4002070BD0C480258B4
:1032400010B501F0CDF805490968054AC1F302112E
:10325000515C01F01F01C84010BD0000204402581D
:10326000BC0201084F4910B50A68096802F0030260
:103270004C4B1B1DC1F305111B684A4C03F00103A5
:103280000C3424680029C4F3CC0414FB03F300EECF
:10329000103AB8EE400A7FD09FED431A9FED432AC3
:1032A000404BF7EE000A083322B1012A66D0022A09
:1032B00022D16AE03B4A283A1468A4061CD5126859
:1032C000C2F3C1043A4AE24001EE902AF8EE612AC4
:1032D00001EE901AF8EE611A196882EEA12AC1F384
:1032E000080101EE901AF8EE611A40EE011A31EE73
:1032F000A00A22EE000A12E001EE901A1968F8EE18
:10330000611AC2EE212AC1F3080101EE901AF8EE0B
:10331000611A40EE011A31EEA00A22EE800A196805
:10332000C1F3462101EE101AB8EE411A31EE201A0F
:10333000C0EE011ABCEEE11A80ED001A1968C1F363
:10334000064101EE101AB8EE411A31EE201AC0EE15
:10335000011ABCEEE11A80ED011A1968C1F3066189
:1033600001EE101AB8EE411A71EE200A80EE201A12
:10337000BCEEC10A80ED020A10BD0DE001EE901A0C
:10338000DFED0C2AF8EE611AA6E701EE901ADFEDE8
:103390000A2AF8EE611A9FE700210160416081600E
:1033A000EAE7000028440258000000390024744C69
:1033B0000090D0030024744A20BCBE4B484910B58D
:1033C0000A68096802F00302454B1B1DC1F3053171
:1033D0001B68434C1434C3F300132468C4F3CC04B7
:1033E00014FB03F300EE103AB8EE400AE9B33C4B8D
:1033F0009FED3C1A1033F7EE000A62B1DFED3A1A86
:10340000012A01D0022A5ED002EE101AF8EE422AFA
:1034100081EEA22A1AE0324A283A1468A4060DD591
:103420001268C2F3C104314AE24001EE902AF8EE7C
:10343000612A01EE901AF8EE611A05E001EE901A89
:10344000DFED2B2AF8EE611A82EEA12A1968C1F38A
:10345000080101EE901A1968F8EE611A40EE011A9F
:1034600031EEA00A22EE000A00E033E0C1F346216B
:1034700001EE101AB8EE411A31EE201AC0EE011A10
:10348000BCEEE11A80ED001A1968C1F3064101EEA5
:10349000101AB8EE411A31EE201AC0EE011ABCEE35
:1034A000E11A80ED011A1968C1F3066101EE101AE4
:1034B000B8EE411A71EE200A80EE201ABCEEC10A65
:1034C00080ED020A10BD01EE901ADFED0A2AF8EE37
:1034D000611AB9E7002101604160816010BD000000
:1034E00028440258000000390024744A0090D00398
:1034F0000024744C20BCBE4B484910B50A680968CA
:1035000002F00302454B1B1DC1F305511B68434CE0
:103510001C34C3F300232468C4F3CC0414FB03F36A
:1035200000EE103AB8EE400AE9B33C4B9FED3C1A6E
:103530001833F7EE000A62B1DFED3A1A012A01D022
:10354000022A5ED002EE101AF8EE422A81EEA22A7A
:103550001AE0324A283A1468A4060DD51268C2F35C
:10356000C104314AE24001EE902AF8EE612A01EEF0
:10357000901AF8EE611A05E001EE901ADFED2B2AA1
:10358000F8EE611A82EEA12A1968C1F3080101EE72
:10359000901A1968F8EE611A40EE011A31EEA00A8D
:1035A00022EE000A00E033E0C1F3462101EE101ADA
:1035B000B8EE411A31EE201AC0EE011ABCEEE11A43
:1035C00080ED001A1968C1F3064101EE101AB8EE39
:1035D000411A31EE201AC0EE011ABCEEE11A80ED5C
:1035E000011A1968C1F3066101EE101AB8EE411A0A
:1035F00071EE200A80EE201ABCEEC10A80ED020AAC
:1036000010BD01EE901ADFED0A2AF8EE611AB9E753
:10361000002101604160816010BD00002844025813
:10362000000000390024744A0090D0030024744C38
:1036300020BCBE4B2DE9F04F954B4FF4807C934955
:1036400089B0DFF848924FF08056924A1C11DFF89B
:1036500048825F0450396045A9F104052ED1D9F89C
:10366000000000F00700052824D2DFE800F09CB736
:103670008625AC0003A8FFF7F5FD049809B0BDE866
:10368000F08F6846FFF79AFE0098F7E706A8FFF765
:1036900033FF0698F2E70868C0F3C10023FA00F090
:1036A000ECE70B68DB057DD5B0427BD12046E5E732
:1036B0001046E3E70020E1E74046DFE7B0F5007F92
:1036C0001CD0DFF8C8C1B0F5806F0CF1080C26D013
:1036D000B0F5006F37D04FF4805A50454FF4804B0F
:1036E0004FD1D9F8000000F4E040B0F5005F44D0BD
:1036F0003DDC002857D05045DCD16FE0D9F8000000
:1037000000F4E070802838D004DC00284BD040283A
:10371000D0D163E0C028CFD06045CBD153E0DCF8F6
:10372000000000F46000B0F5800F26D004DCD0B3B8
:10373000B0F5001FBED151E0B0F5C00FBCD0B0F560
:10374000000FB7D13FE0DCF8000000F0E060B0F11E
:10375000007F12D004DC30B3B0F1807FAAD13DE00D
:10376000B0F1407FA8D0B0F1806FA3D12BE0B0F5CD
:10377000405FA1D058459DD125E00868800099D5CB
:1037800084E7B0F5002F4FF4803812D0404537D190
:10379000286810F4803075D040458BD1086800014E
:1037A00088D501E026E06DE06846FFF707FE029845
:1037B00064E7DCF8000010F440300FD0404511D031
:1037C000B0F5003F98D128680D6800F040506D07B3
:1037D0007FF567AF00287FF464AF5CE708680001FD
:1037E000CDD54EE708688000C9D506A8FFF784FE4E
:1037F000089843E709688903C1D5B84288D157E7DB
:1038000058452BD1DCF8000000F0E040B0F1405FFB
:103810001CD00CDC90B1B0422CD0B8428AD10868E0
:103820008000ACD506A8FFF767FE079826E7B0F141
:10383000804F0FD0B0F1A04F90D11FE0FFF700FDF7
:103840001CE76846FFF7BAFD019817E708684007CC
:1038500095D520E70868C00591D527E7B0F5004F5A
:1038600089D1D9F8000010F0405007D0B04209D0FB
:10387000B84292D108680001E3D41BE708688003CE
:10388000FBD515E708688001F7D5F3E650440258E8
:103890000090D00340787D010080BB002DE9F84FF7
:1038A0000446006800252E46010104F12400FE4F65
:1038B000DFF8F88300901DD5606E50B1B0F5801F21
:1038C0000CD0B0F5001F0ED0B0F5401F1DD0012563
:1038D0000FE0386840F40030386016E00221201D07
:1038E00003F002F803E00098022103F087F80500D6
:1038F0000BD02E462088C00523D5606D05281ED22A
:10390000DFE800F00C11161B1B00D8F80010626EE7
:1039100021F440111143C8F80010EBE7386840F477
:103920000030386009E00021201D02F0DDFF03E0D7
:103930000098002103F062F805466DB100E0012512
:103940002E462088800528D5A06D80281ED00CDC4E
:1039500090B140280ED114E0D8F80010626D21F02B
:1039600007011143C8F80010EBE7C02813D0B0F5E9
:10397000807F10D001250FE0386840F400303860B7
:1039800009E00021201D02F0AFFF03E000980021B4
:1039900003F034F8054685B12E462088DFF81093F1
:1039A00040052CD5D4F8A400B0F5800F20D00DDC54
:1039B000A0B1B0F5001F0FD115E0D8F80010A26D2E
:1039C00021F4E0711143C8F80010E6E7B0F5C00F2C
:1039D00013D0B0F5000F10D001250FE0386840F487
:1039E0000030386009E00021201D02F07DFF03E077
:1039F0000098002103F002F8054675B12E46208894
:103A000000052DD5D4F8A800B0F1007F21D00EDC40
:103A1000A8B1B0F1807F10D116E0D9F80010D4F829
:103A2000A42021F460011143C9F80010E7E7B0F1C8
:103A3000407F13D0B0F1806F10D001250FE03868BF
:103A400040F40030386009E00021201D02F04CFFF6
:103A500003E00098002102F0D1FF05466DB12E462B
:103A6000206880011FD5A06CD8B110280FD0202865
:103A700012D0302815D0012514E0D9F80010D4F860
:103A8000A82021F0E0611143C9F80010E8E7386888
:103A900040F40030386004E00221201D02F024FFD1
:103AA00005466DB12E462088C0042BD5E06DB0F5DB
:103AB000005F20D00DDCA0B1B0F5805F0FD115E024
:103AC0007A48001F0168A26C21F0300111430160A7
:103AD000E9E7B0F5405F13D0B0F5804F10D0012575
:103AE0000FE0386840F40030386009E00021201D04
:103AF00002F0FAFE03E00098002102F07FFF054685
:103B000085B12E462088800429D5206EB0F5403F2F
:103B100023D010DC08B3B0F5803F14D0B0F5003FDF
:103B20000FD115E0D8F80010E26D21F4E041114307
:103B3000C8F80010E6E7B0F5802F0ED0B0F5A02F42
:103B40000BD001250AE00121201D02F0CDFE03E08B
:103B50000098012102F052FF05468DB12E462088C3
:103B600040042AD5D4F8AC00B0F1405F23D010DC7B
:103B700008B3B0F1805F14D0B0F1005F0FD115E051
:103B8000D8F80010226E21F4E0211143C8F800108B
:103B9000E5E7B0F1804F0ED0B0F1A04F0BD001257A
:103BA0000AE00121201D02F09FFE03E000980121A0
:103BB00002F024FF05466DB12E46208800041FD573
:103BC000E06ED8B1B0F1805F0ED0B0F1005F10D0E0
:103BD000012514E0D9F80010D4F8AC2021F0E04120
:103BE0001143C9F80010E8E7386840F40030386045
:103BF00004E00121201D02F077FE05466DB12E463E
:103C00002068C0011ED5606CD0B101280ED00228FA
:103C100011D0032814D0012513E0D8F80010E26E6B
:103C200021F040511143C8F80010E9E7386840F42A
:103C30000030386004E00221201D02F055FE0546E8
:103C400075B12E462068DFF86CB040025AD51A488C
:103C5000016841F480710160FFF7A4F982460EE02B
:103C60001248001F0168626C21F0030111430160DA
:103C7000E8E7FFF797F9A0EB0A0064283AD80E4866
:103C80000068C005F5D5B5BB094818300068B4F820
:103C9000B01000F4407001F44071884219D004481B
:103CA000183001680AE000002C44025850440258C1
:103CB000584402581044025800480258026821F43F
:103CC000407142F480320260026822F48032026065
:103CD0000160D4F8B000B0F5807F22D1FFF762F91F
:103CE000824609E0FFF75EF9A0EB0A0141F2883055
:103CF000814201D9032504E0FE4800688007F1D520
:103D00007DB12E462078DFF8F0A3C0073CD0A06F2D
:103D1000182837D025DC78B3082828D0102824D1DB
:103D20002BE0D4F8B000C0F3012103290ED0DBF85A
:103D3000001021F47C51CBF80010EE480168B4F873
:103D4000B020C2F30B0211430160DBE7DBF8002077
:103D5000EA4B22F47C5203EA10100243CBF8002015
:103D6000EBE720280ED028280CD001250BE00121FC
:103D7000201D02F0B9FD04E004E00098012102F0EA
:103D80003DFE05465DB12E46207880071ED5606F4A
:103D9000062819D2DFE800F0160C11161616DAF80C
:103DA0000010A26F21F038011143CAF80010EBE7B0
:103DB0000121201D02F098FD03E00098012102F08E
:103DC0001DFE054675B100E001252E46207840070E
:103DD0001FD5D4F89000062819D2DFE800F0160CA1
:103DE00011161616DAF80010626F21F00701114360
:103DF000CAF80010EAE70121201D02F075FD03E07A
:103E00000098012102F0FAFD05469DB100E0012570
:103E10002E46207880062BD5D4F88C00B0F1405F78
:103E200024D011DC10B3B0F1805F15D0B0F1005F89
:103E300010D116E0D9F80010D4F8902021F0070135
:103E40001143C9F80010E4E7B0F1804F0ED0B0F193
:103E5000A04F0BD001250AE00021201D02F044FDF7
:103E600003E00098022102F0C9FD05468DB12E46FF
:103E7000207840062BD5D4F89800B0F5406F24D0B8
:103E800011DC10B3B0F5806F15D0B0F5006F10D114
:103E900016E0DAF80010D4F88C2021F0E04111434C
:103EA000CAF80010E4E7B0F5805F0ED0B0F5A05F6F
:103EB0000BD001250AE00021201D02F015FD03E0D2
:103EC0000098022102F09AFD05468DB12E46207819
:103ED00000062BD5D4F89C00B0F5C04F24D011DCDF
:103EE00010B3B0F5005F15D0B0F5804F10D116E0DB
:103EF000D9F80010D4F8982021F4E0511143C9F802
:103F00000010E4E7B0F5004F0ED0B0F5204F0BD015
:103F100001250AE00021201D02F0E6FC03E00098E4
:103F2000022102F06BFD05464DB12E4620780007B8
:103F30001ED5D4F88000B0F5805F0AD00FE0D9F824
:103F40000010D4F89C2021F460411143C9F80010FE
:103F5000ECE70098022102F051FD00B10126DAF8E9
:103F60000010D4F8802021F440511143CAF8001009
:103F70002078C00613D5D4F89400B0F5807F05D121
:103F80000098022102F03AFD00B10126D9F8001094
:103F9000D4F8942021F440711143C9F8001020682E
:103FA000000316D5D4F8A00038B1B0F5803F09D091
:103FB000B0F5003F0BD001250AE00021201D02F0E2
:103FC00093FC03E00098022102F018FD054685B13C
:103FD0002E462068400322D5D4F88400B0F5801F17
:103FE00011D0B0F5001F13D0B0F5401F15D001253A
:103FF00014E0D9F80010D4F8A02021F44031114386
:10400000C9F80010E5E7386840F40030386004E093
:104010000098012102F0F2FC054655B12E462068B9
:10402000C0031CD5E06C70B1B0F5803F10D0012505
:1040300014E0DAF80010D4F8842021F44011114380
:10404000CAF80010EBE7386840F40030386004E04C
:104050000221201D02F048FC0546CDB12E46206805
:10406000800005D50098022102F0C8FC00B10126AD
:10407000206880031BD5E06FB8B1B0F5807F10D009
:10408000B0F5007F11D0B0F5407F0ED001250DE0D6
:10409000194808380168E26C21F48031114301604D
:1040A000DDE7386840F4003038604DB32E462068B4
:1040B000C00207D5D8F80010226F21F0004111434B
:1040C000C8F800102068C00008D5DBF80000D4F85C
:1040D000B42020F480401043CBF800002068800218
:1040E00007D5D8F80010A26E21F080711143C8F8EE
:1040F000001006E07044025854440258CFFFFF00FD
:1041000029E0206840000CD5DBF8001021F40041C4
:10411000CBF80010DBF80010D4F8B8201143CBF82E
:1041200000102068002806DA10480168226D21F08E
:104130004051114301602068000208D5DAF80010F0
:10414000D4F8882021F440011143CAF800105EB170
:104150000120BDE8F88FDAF80010E26F21F4407119
:104160001143CAF80010A2E70020F2E74C440258BD
:104170002DE9F05F04000D467ED0DFF84492D9F8B7
:10418000000000F00F00A8420CD2D9F8001021F076
:104190000F012943C9F80010D9F8000000F00F0002
:1041A000A84269D12078874E40070AD52069316836
:1041B00001F07001884204D9316821F07001014397
:1041C00031602078DFF8008200070CD56069414635
:1041D000D8F8002002F07002904204D90A6822F058
:1041E000700202430A602078C0060CD5A0694146DF
:1041F000D8F8002002F4E062904204D90A6822F460
:10420000E06202430A602078DFF8C0B180060CD576
:10421000E0695946DBF8002002F07002904204D9B0
:104220000A6822F0700202430A60207880070AD5EB
:10423000E068316801F00F01884204D9316821F04B
:104240000F01014331602078C0073DD03068A1687C
:1042500020F47060084330605A49606818390228B9
:1042600018D0032819D00968012819D04907002956
:1042700049DADFF850A100E045E0AAF1080ADAF8CF
:10428000001021F007010143CAF80010FEF78AFE72
:10429000074611E009688903E9E709688901E6E74B
:1042A000C905E4E7FEF77EFEC11B41F2883081427A
:1042B00002D90320BDE8F09FDAF80000616800F041
:1042C0003800B0EBC10FEDD1207880070AD5E06847
:1042D000316801F00F01884204D2316821F00F01EA
:1042E00001433160D9F80010484601F00F01A9429E
:1042F0000BD9016821F00F0129430160006800F02B
:104300000F00A84201D00120D4E7207840070AD549
:104310002069316801F07001884204D2316821F0CF
:10432000700101433160207800070CD56069414677
:10433000D8F8002002F07002904204D20A6822F0FD
:10434000700202430A602078C0060CD5A06942467C
:10435000D8F8001001F4E061884204D2116821F419
:10436000E06101431160207880060CD5E069594670
:10437000DBF8002002F07002904204D20A6822F0BA
:10438000700202430A6000F071F83168C1F3032241
:104390000F498A5C02F01F02D040326802F00F021F
:1043A000895C0C4A01F01F0120FA01F111600A49F1
:1043B00008600A480068BDE8F05FFEF7ABBE000089
:1043C00000200052184402581C440258204402584D
:1043D000BC020108309002242C9002242490022474
:1043E00000B500F043F80B4A11681268C1F30323CB
:1043F0000949CB5C03F01F03D84002F00F02895C2F
:10440000064A01F01F0120FA01F11160044A106010
:10441000084600BD18440258BC020108309002242E
:104420002C90022400B5FFF7DBFF05490968054A17
:10443000C1F30211515C01F01F01C84000BD000032
:104440001C440258BC02010800B5FFF7C9FF05492A
:104450000968054AC1F30221515C01F01F01C840FF
:1044600000BD00001C440258BC020108434830B59E
:104470000068444C10F03801414808D00211082966
:1044800003D010290BD018290BD0104630BD21685D
:104490008906FBD52168C1F3C101C84030BD3A4847
:1044A00030BD364918310A68096802F00302334BFF
:1044B0001C33C1F305111B68304D03F00103243593
:1044C0002D68C5F3CC0515FB03F300EE103AB8EEEA
:1044D000400AE9B3294BDFED2D0A2033B7EE001A6D
:1044E00062B1DFED2B1A012A01D0022A3CD002EE84
:1044F000101AF8EE422A81EEA22A17E022689206EC
:104500000CD52268C2F3C102D04001EE900AF8EE49
:10451000612A01EE901AF8EE611A05E001EE901A98
:10452000DFED1C2AF8EE611A82EEA12A1868C0F3AA
:10453000080001EE900A1868F8EE611A40EE201AA1
:1045400031EE810A22EE000AC0F34620401C00E052
:1045500011E000EE900AF8EE600A80EE201ABCEE40
:10456000C10A10EE100A30BD01EE901ADFED0A2AE2
:10457000F8EE611AD8E7002030BD00001044025860
:104580000090D0030044025840787D0100000039BB
:104590000024744A0024744C20BCBE4B2DE9F05F0B
:1045A00004007DD02078DFF8F8A3FE4EFE4DC00752
:1045B00047D0DAF80000316800F03800102815D034
:1045C000182803D101F0030002280FD06068B0F56D
:1045D000803F12D010B1B0F5A02F18D0286820F479
:1045E00080302860286820F4802009E02868800353
:1045F00027D560680028D4D023E0286840F48030B4
:104600002860606888B1FEF7CDFC074609E028689D
:1046100040F480202860F0E7FEF7C4FCC01B64284B
:104620007ED828688003F7D50BE0FEF7BBFC074671
:1046300004E0FEF7B7FCC01B6428F1D828688003AB
:10464000F7D4207841F20309D84F800752D5DAF821
:104650000000316810F038000ED0182801D188070A
:104660000AD0E068A0B3296821F01901014329604C
:10467000FEF798FC80461AE02868400702D5E068FB
:1046800000288ED0FEF788FC48451AD820694028BB
:1046900011D0396821F47C3141EA0030386029E0DA
:1046A000C2E0FEF77FFCA0EB08000228B8D828681B
:1046B0004007F6D5E6E7386820F47C3040F4003057
:1046C000ECE73868217C20F0FE4040EA0160E5E735
:1046D000FFE7286820F001002860FEF763FC8046B1
:1046E00005E0FEF75FFCA0EB0800022898D82868D8
:1046F0004007F6D42078C0065CD5DAF800003168AF
:1047000000F03800DFF898B20828ABF1040B12D0A3
:10471000182803D101F0030001280CD0E06900E063
:10472000E2E00028286836D040F080002860FEF7DC
:1047300039FC804621E02868C00521D5E069802841
:1047400072D11DE0206A20281FD0396821F0F8417D
:1047500041EA806038602DE0DBF8001094F82020FA
:1047600021F07C5141EA0261CBF8001022E0FEF713
:1047700019FCA0EB0800022898D82868C005F6D5D7
:10478000FEF70AFC4845E7D8DCE7386820F0F84037
:1047900040F08040DEE720F080002860FEF702FC59
:1047A000074604E0FEF7FEFBC01B02289ED82868DF
:1047B000C005F7D42078000728D57A4960694C31C4
:1047C000002888460846096810D041F001010160C0
:1047D000FEF7E8FB074604E0FEF7E4FBC01B0228F7
:1047E00084D8D8F800008007F6D50FE021F0010149
:1047F0000160FEF7D7FB074604E0FEF7D3FBC01BC2
:10480000022871D8D8F800008007F6D420788006F6
:1048100023D5A0690028286810D040F48050286073
:10482000FEF7C0FB074605E02FE1FEF7BBFBC01B10
:10483000022859D828688004F7D50EE020F480506B
:104840002860FEF7AFFB074604E0FEF7ABFBC01B9A
:10485000022849D828688004F7D4207840074DD52D
:10486000DFF84C81D8F8001041F48071C8F80010CE
:10487000FEF798FB074604E0FEF794FBC01B642894
:1048800032D8D8F80000C005F6D5464FA0684837A2
:1048900001280AD008B1052813D0386820F001009B
:1048A0003860386820F0040002E0386840F0010009
:1048B0003860A06841F2883990B1FEF773FB8046FA
:1048C0000AE0386840F004003860EEE7FEF76AFB63
:1048D000A0EB0801494507D838688007F6D50DE0F8
:1048E000FEF760FB804606E084E0FEF75BFBA0EB92
:1048F000080149457ED838688007F6D4616AE1B37B
:10490000DAF80000DFF89C80C0F3C200032808F149
:10491000080870D02868022920F08070286003D031
:10492000FEF740FB044685E0FEF73CFB074604E04B
:10493000FEF738FBC01B022879D828688001F7D41D
:10494000306840F2F3318843E16A40EA0110A16A1D
:104950000843306094F834004FF4FE02218E400288
:10496000491EA0F5007080B2C1F308010843218FF1
:10497000491E02EA0141084300E088E094F83C1037
:104980001202491E02EA01610843C8F80000054806
:10499000001D016821F00101016002490C3109E0AC
:1049A0001044025828440258004402580444025853
:1049B000004802580A684FF6F8739A43A36C42EA1B
:1049C000C3020A600168226C21F00C0111430160EE
:1049D0000168626C21F0020111430160016841F439
:1049E00080310160016841F400310160016841F4E7
:1049F000802101E01BE021E00160016841F001013C
:104A00000160286840F080702860FEF7CBFA044609
:104A100004E0FEF7C7FA001B022808D828688001C6
:104A2000F7D534E0FEF7BEFA001B022802D90320B6
:104A3000BDE8F09F28688001F4D428E03268D8F8F7
:104A40000000012921D0A36A02F0030199421CD180
:104A5000E16AC2F30512914217D1216BC0F308023B
:104A6000491E8A4211D1616BC0F34622491E914210
:104A70000BD1A16BC0F30642491E914205D1E16BF7
:104A8000C0F30660491E814201D00120D0E700201A
:104A9000CEE7704770477047704700002DE9FE4F22
:104AA00004460D460026032084F83400E06B0328FA
:104AB0005AD0B5F5004F57D00027B5F5804F4FF4C9
:104AC00000684FF0806904D005B3A06B40F000602F
:104AD0003FE0009700210197206802F07BFB8001F6
:104AE0001CD46946204602F0CDFB70BB0198400300
:104AF0002DD5B4F848000104206802F00FF820BB5F
:104B0000206802211DE0A06B384322E000970021BD
:104B10000197206802F05EFB800101D54746F2E76D
:104B20006946204602F0AEFB78B90198C0030ED565
:104B3000B4F848000104206801F0F0FF28B92068AB
:104B4000002102F032F80028DDD00746DBE74F46AF
:104B5000D9E7A063A06B4FF4007BDFF8BCA038B1AD
:104B60002168C1F838A044E0A06B40F08050F0E725
:104B70004FF48030FEF75EFD98B3284F2B46D4E902
:104B80000451B0FBF7FCD4E901928C4511D9D4F85B
:104B90005CC0DC450DD0BCF5807F13D04FEA670CBC
:104BA00001B34FEA4108B0FBF8F8E04501D9B0FB8A
:104BB000F7F1A0690095CDE901102068494602F09F
:104BC0000DFB17E0DFF858C031B14FEA4108B0FBE8
:104BD000F8F8B84502D8ECE7B842EAD9B0FBFCF1E6
:104BE000E7E702E06045E2D8E3E7A06B40F0006051
:104BF000A06301262068594601F0BFFF30B122684A
:104C0000C2F838A0A16B0143A1630126012084F8FA
:104C100034003046BDE8FE8FFF0FE01F80F0FA023F
:104C200000E1F50570477047026F120E0A70026FBF
:104C3000120A4A8090F87020436F120642EA13224B
:104C40004A6090F874200A72826F120E4A72826F64
:104C5000C36F120242EA1362CA60C26FC2F3035208
:104C60000A74C26FC2F30B224A8290F87C00C0F330
:104C7000460008750120487500207047F0B5026EA7
:104C8000920F0A70026EC2F383624A70026EC2F320
:104C900001628A70026E120CCA70B0F86020120AAB
:104CA0000A7190F860204A71426E120DCA80426EFD
:104CB000C2F303420A72B0F86420C2F3C0324A72EF
:104CC000B0F86420C2F380328A72B0F86420C2F374
:104CD0004032CA72B0F86420C2F300320A73002670
:104CE0004E73C36B01244FF4007563B1012B3AD0AE
:104CF000026850499163816B41F08051816380F873
:104D000034400120F0BDB0F86420836E9205120D8E
:104D100042EA93720A61826EC2F3C2620A75826EBF
:104D2000C2F302624A75826EC2F342528A75826E83
:104D3000C2F38242CA75826EC2F3C2320A760B692E
:104D40005B1CC3640A7E02F00702921C9340C3649A
:104D50000A7A02F00F0704FA07F20265520A534377
:104D6000C0E915350EE090F86420836E9206920A31
:104D700042EA13420A610A69521C9302C364C0E901
:104D800014538565B0F86820C2F380324A76B0F8D3
:104D90006820C2F3C6128A7690F8682002F07F027B
:104DA000CA76C26ED20F0A77C26EC2F341724A77D8
:104DB000C26EC2F382628A77C26EC2F38352CA772E
:104DC000C26EC2F3405281F8202081F82160C26E89
:104DD000C2F3004281F82220B0F86C20C2F3C03246
:104DE00081F82320B0F86C20C2F3803281F82420AF
:104DF000B0F86C20C2F3403281F82520B0F86C2066
:104E0000C2F3003281F82620B0F86C20C2F3812270
:104E100081F82720B0F86C20C2F3012281F8282005
:104E200090F86C00C0F3460081F8290081F82A4010
:104E30000020F0BDFF0FE01FC26B0A60026C4A60E9
:104E4000426C8A60826CCA60C26C0A61026D4A61FF
:104E5000426D8A61806DC8610020704738B50025B9
:104E600004460095B0F848000104206801F088FF6E
:104E700028B92068002102F0ADF90090284610B151
:104E8000A16B0143A1630098C0F3432038BD00002B
:104E90002DE9F04190B00C4600260546694602F027
:104EA0006DFB2A4F4FF0010840B129688F63A96B51
:104EB0000143A96385F83480012636E00098C0F3E9
:104EC000811020700098C0F34010607000994FF47A
:104ED0007F40009A00EA112141EA12616180019944
:104EE00009BA6160029921720299090A61720299F4
:104EF000C1F30351A172029900EA11400399C9B2AA
:104F00000843A0810398C0F38520A0730398C0F3E1
:104F10000120E0730398C0F303102074039800F09D
:104F20000F0060740498000EA07428684FF400719C
:104F300001F023FE28B129688F63A86385F83480C7
:104F4000012610B03046BDE8F0810000FF0FE01FE1
:104F50002DE9F843056B04460068416B09041AD536
:104F6000290718D5D4E90A50202812D30026206832
:104F700002F04AF9010A28706970010C000EA9704C
:104F8000761CE8702D1D082EF1D3A562E06A20384A
:104F9000E062BDE8F883416B4FF00107DFF8E8817C
:104FA0004FF00006C90550D5390281632068C16BF6
:104FB0004CF23A129143C1632068C16B21F08051D9
:104FC000C1632068C16821F04001C160280718D57D
:104FD00015F0220F09D0206801F01EFF28B1A16B47
:104FE0000143A1632046FFF71EFE2168C1F8388007
:104FF00084F834702663A80723D1204600F06CFAA9
:10500000C7E72806C5D5206886622068C662206882
:10501000066515F0220F09D0206801F0FDFE28B1C9
:10502000A16B0143A1632046FFF7FDFD84F83470B6
:10503000266315F0300F02D0204600F04DFAA80785
:10504000A7D0204600F044FAA3E7416B490421D5DC
:1050500029071FD5D4E9085020289AD3002628789C
:105060000090697840EA01200090A97840EA014068
:105070000090E9782D1D40EA0160009020686946A3
:1050800002F0D8F8761C082EE9D32562606A203831
:1050900060627EE7416B11F03A0F416B57D0890790
:1050A00003D5A16B41F00201A163416B090703D550
:1050B000A16B41F00801A163416B890603D5A16B87
:1050C00041F02001A163416BC90603D5A16B41F0FA
:1050D0001001A163C0F838802068C16B21F49D7174
:1050E000C1632068C16821F04001C1602068C16AC5
:1050F00041F40051C1622068C16841F08001C16083
:10510000206801F089FEA16B0843A0632068C16894
:1051100021F08001C16021684FF400608863280796
:1051200003D584F8347026630DE028068CD5A06B77
:10513000002889D02068C16B21F08051C1632068AC
:10514000066584F834702046FFF76DFD21E7C9003D
:105150009FD54FF0805181632068006D40074FEA72
:10516000856008D40028204602DAFFF795FC10E796
:10517000FFF790FC0DE70028204602DAFFF78BFCD2
:1051800007E7FFF786FC04E73A0F0018F0B50400C4
:1051900085B024D094F83400002638B92677A06969
:1051A00008B90220A061204600F09EF8032084F890
:1051B0003400204600F03CF888B969462046FFF7E5
:1051C00067FE60B99DF810009DF81110E26B012A8E
:1051D00008D0E6652046E168FFF760FC58B1012081
:1051E00005B0F0BD084302D04FF4007001E04FF469
:1051F0008070E065EEE7FDF7D5FE0127054604E087
:10520000FDF7D0FE401B401C0AD02046FFF726FECB
:105210000428F5D1A663266384F834700020DFE704
:105220004FF00040A06384F834700320D8E70000FA
:105230002DE9FE4304464FF000084FF48030FEF79E
:10524000F9F905004FF0010606D02448B5FBF0F748
:10525000A069022806D00AE084F834604FF00060AC
:10526000A06338E021680A6842F010020A60CDF8B5
:1052700000804346CDE9017020684246414601F076
:10528000ADFF206801F0BAFF78001549B5FBF0F0DA
:10529000B1FBF0F0401CFDF723FD204602F0CAF8F8
:1052A00028B184F83460A16B0143A16313E0204668
:1052B00002F056F80028F4D120684FF4007101F094
:1052C0005CFC002808D0226806499163A16B014369
:1052D000A16384F834600120BDE8FE8300350C0032
:1052E00010210100FF0FE01FF0B5B5B004461421F6
:1052F0002FA8FBF7D1F8BC216846FBF7CDF8394958
:10530000206888426BD14FF48030009000246846BA
:105310001394FEF7C3FA08B1FBF7A4FE3248016804
:1053200041F400710160006800F4007034902E4870
:10533000001D016841F002010160016801F00201F5
:105340003491016841F040010160016801F04001C1
:105350003491016841F008010160016801F0080121
:105360003491016841F0010101600068022531AA11
:1053700000F0010034904CF21000CDE92F05032617
:105380001A48092782E8D0002FA9FDF70BFDA802D3
:105390003194CDE92F050A202FA9CDE932601448B8
:1053A000FDF700FD40203194CDE92F050B202FA9FA
:1053B000CDE932600F48FDF7F5FC012031AACDE9B7
:1053C0002F050D482FA982E8D000FDF7EBFC002245
:1053D0007C201146FDF7DAFE7C20FDF7C9FE35B0D2
:1053E000F0BD000000240248DC44025800040258CA
:1053F00000180258000C0258000002582DE9F04134
:105400000E001F4686B01546044607D094F83400B7
:10541000012807D0022006B0BDE8F081A06B40F063
:10542000006008E00021A163626DE819904204D990
:10543000A06B40F00070A0633EE0032084F83400CD
:105440002068C1627802C4E90A60E26B012A00D0D8
:105450006D024FF0FF32CDE9002090200290022033
:105460008846CDE9030105916946206801F049FDB0
:105470002068C16841F04001C1602068866501264E
:1054800020680665012F06D98220206320682946FE
:1054900001F0E5FB05E0812020632068294601F04A
:1054A000F7FB58B1226809499163A16B0143A163DD
:1054B00084F83460C4F830800120ACE72068C16B08
:1054C00041F49571C1630020A5E70000FF0FE01FC4
:1054D00010B5FBF77DFB10BD10B5FBF78DFB10BDC4
:1054E0002DE9F0430E001F4687B01546044607D04D
:1054F00094F83400012807D0022007B0BDE8F083FB
:10550000A06B40F0006008E00021A163626DE81923
:10551000904204D9A06B40F00070A0633EE00320ED
:1055200084F834002068C1627802C4E90860E26B44
:10553000012A00D06D024FF0FF32CDE900204FF07C
:1055400090090491CDE90291059188462068694649
:1055500001F0D7FC2068C16841F04001C1602068BB
:105560008665012620680665012F06D9A0202063E4
:105570002068294601F093FC05E0C4F830902946E4
:10558000206801F0A5FC58B1226809499163A16B1C
:105590000143A16384F83460C4F830800120ACE793
:1055A0002068C16B41F48D71C1630020A5E7000044
:1055B000FF0FE01F70B5040015460E4603D094F8A7
:1055C000450010B107E0012070BD002084F84400C0
:1055D000204600F025F8206804F10801FBF784FD5F
:1055E000A26831462068FBF7C5FDE36A2946D4E985
:1055F0000102FBF75BFDA168206850F8212042F012
:10560000010240F821200548016841F00041016095
:10561000012084F84500002070BD000000400052C9
:10562000FDF770BB401EB0F1807F10B501D30120A3
:1056300010BD4FF0E02460610F21601703F06AF99C
:105640000020A06107202061002010BD7047704736
:1056500070470000F0B590F83C20012A3BD00125AE
:1056600080F83C50022280F83D2003685A689C680C
:105670001A4E1B4FB34201D0BB4204D122F4700C2E
:105680004A6842EA0C02D1F800C022F070024CEAEB
:10569000020CC3F804C00268B24210D0B2F1804FCD
:1056A0000DD0104B9A420AD00F4B9A4207D00F4BA5
:1056B0009A4204D0BA4202D00D4B9A4204D1896872
:1056C00024F080031943916080F83D50002180F858
:1056D0003C100846F0BD0220F0BD00000000014073
:1056E000000401400004004000080040000C00409D
:1056F0000018004010B5040003D094F83D0010B12C
:1057000007E0012010BD002084F83C00204600F096
:1057100023F8022084F83D002068211D02F028F9BA
:10572000012084F8480084F83E0084F83F0084F8A3
:10573000400084F8410084F8420084F8430084F873
:10574000440084F8450084F8460084F8470084F853
:105750003D00002010BD000008B50068B0F1804F8A
:1057600049D12548016841F00101016000684FF40A
:105770008062224900F0010000902148016016215A
:10578000416000218160C0E9031252004261920031
:1057900082615211C0E90721042141620321816223
:1057A0001104C16289100163FCF7CCFA08B1FBF760
:1057B00059FC1348FCF736FF08B1FBF753FC0022F5
:1057C0001C201146FDF7E2FC1C20FDF7D1FC0D4A20
:1057D00000210B48FDF7FEF80B4A01210848FDF7B0
:1057E000F9F801B0094A0A494FF4004304485DF84A
:1057F00004EBFDF71BB908BDE84402581000024055
:1058000088BF0324750A00089D0A00083CBF0224D3
:1058100000300060704770B50446006801694FF0C1
:105820000005C943890715D4C168C943890711D444
:10583000E91E0161012020772068806980072046E9
:1058400002D0FFF7E7FF04E000F0D6F8204600F0B2
:1058500095F9257720680169C943490717D4C168BC
:10586000C943490713D46FF0040101610220207776
:105870002068806910F4407F204602D0FFF7CAFFFD
:1058800004E000F0B9F8204600F078F925772068A8
:105890000169C943090716D4C168C943090712D46D
:1058A0006FF008010161042020772068C06980073B
:1058B000204602D0FFF7AEFF04E000F09DF820463E
:1058C00000F05CF9257720680169C943C90617D43F
:1058D000C168C943C90613D46FF0100101610820E3
:1058E00020772068C06910F4407F204602D0FFF77F
:1058F00091FF04E000F080F8204600F03FF92577A2
:1059000020680169C943C90708D1C168C943C907EB
:1059100004D1891E0161204600F014FA2068016953
:10592000C943090609D4C168C943090605D46FF003
:10593000800101612046FFF78AFE20680169C943A2
:10594000C90509D4C168C943090605D46FF480713B
:1059500001612046FFF77AFE20680169C9434906C4
:1059600009D4C168C943490605D46FF040010161FB
:10597000204600F011FA20680169C94389060BD45A
:10598000C168C943890607D46FF020010161204630
:10599000BDE87040FFF75CBE70BD000010B586B07A
:1059A000044614216846FAF777FD2068B0F1804F6D
:1059B0001BD10F4C012204212046FDF7E8FA0D49C6
:1059C000086840F0010008600868012100F001004B
:1059D0000590042000900220CDE901010320CDE9CB
:1059E000030169462046FDF7DDF906B010BD000051
:1059F00000000258E0440258704770B5044690F821
:105A00003C000D4601280BD0012084F83C000C2AF4
:105A100045D007DC5AB1042A1BD0082A78D12CE0E3
:105A2000022070BD102A4ED0142A71D15DE020688A
:105A300002F016F82068816941F008018161206850
:105A4000816921F004018161206881692A6911431B
:105A500011E0206802F052F82068816941F4006189
:105A600081612068816921F4806181612068816998
:105A70002A6941EA022181614AE0206802F086F841
:105A80002068C16941F00801C1612068C16921F045
:105A90000401C1612068C1692A69114311E02068CD
:105AA00002F0B8F82068C16941F40061C161206862
:105AB000C16921F48061C1612068C1692A6941EA34
:105AC0000221C16124E0206802F0DAF82068416D0B
:105AD00041F0080141652068416D21F004014165F4
